:100DC0007534FFC2001210057FF47E01120FE57B1F
:100DD000007A0079237D11121099120D198F22E5E6
:100DE00022B4FF0280F43000071210D5C20080EA5E
:100DF000E522B43D16753800753900753A347B002C
:100E00007A007923120A1AD20080CFE522B4641442
:100E1000753800753900753A347B007A00792312F1
:100E20000EDF80B6E522B463131210D57B007A0082
:100E300079237D111210997534FF809E75380075E5
:100E40003900753A3485223B7B007A007923120FF2
:030E500035808763
:1010E9003132332B3435362D3738392A302E3D2FCE
:0A10F9000808646323242526282933
:10107900E4FDFCC3ED9FEC9E5015E4FBFA0BBB00AD
:0F108900010AEB64704A70F50DBD00010C80E4A4
:011098002235
:100D1900E4F53575B0FFE5B0F460297F147E001263
:100D29001079E5B0F4601DAFB0EF2403600B1470C7
:100D390010E5B0B4FFFBAF0822E5B0B4FDFBAF0985
:100D4900227FFF2275B0F0E5B064F060677F147E02
:100D590000121079E5B064F0605CAFB0EF249060E8
:100D69001B24C0601224E0600924F070127535015B
:100D7900800D753502800875350380037535047556
:100D8900B00FAFB0EF24F9601824FC601024FE60A6
:100D990008147013853535800E7404800674088034
:100DA90002740C2535F535E5B0B40FFBE535901027
:060DB900E893FF227FFF1A
:010DBF002211
:0F0FD600C291C2A58F807F027E00120FE5D2A5C7
:100FE500E4FDFCC3ED9FEC9E5015E4FBFA0BBB0042
:0F0FF500010AEB64704A70F50DBD00010C80E439
:0110040022C9
:08110400C290120FD6C2A52211
:08110C00D290120FD6C2A522F9
:101054008B4D8A4E894FAB4DAA4EA94F1204CB60DB
:1010640013054FE54F7002054E14F91204CBFF121D
:05107400110C80E222D6
:051114007F0C02110434
:051119007F0802110433
:1010B9008F4DA905E54D7007E92480FF121104E55C
:0C10C9004DB40107E924C0FF12110422FD
:1010D5007F381211047F0C1211047F061211047F50
:0410E50001021104EF
:100F8A0057656C636F6D65210062797363007370D6
:100F9A00616365206F766572666C6F776572007340
:100FAA0070616365206E756C6C006E6F7468696E33
:100FBA006720746F207072696E7400756E65787040
:0C0FCA00206572726F7200252E366600E2
:101005001210D57BFF7A0F798A121054E4FD7F0107
:101015001210B97BFF7A0F79931210547FF47E0179
:08102500120FE57F0102110426
:061099008B4D8A4E894FC9
:10109F00E4FFEFC39D5012AB4DAA4EA94F8F82753F
:0910AF008300E41205450F80E9FD
:0110B8002215
:100F35008B358A368937AB38AA39A93A1204CBB42E
:100F45000F1F1210D57BFF7A0F79981210547FE886
:100F55007E03120FE51210D5AB35AA36A93702105C
:100F650054AB38AA39A93A74011205111204CBAB56
:100F750035AA36A937F582758300E53B120545AFDD
:050F85003B12110C22DB
:100EDF008B358A368937AB38AA39A93A1204CBB485
:100EEF00FF151210D57BFF7A0F79A91210547FE8E6
:100EFF007E03120FE58023AB38AA39A93A1204CB2F
:100F0F00AB35AA36A937F582758300E4120545ABD8
:100F1F0038AA39A93A74FF1205111210D5AB35AAA8
:060F2F0036A93702105440
:060A1A008B358A36893796
:100A2000E4F53EF53DF53CF53BF542F541F540F585
:100A30003FF546F545F544F543C201C202C203F550
:100A400047F54CF54B754A8075493FAB38AA39A933
:100A50003A1204CBB4FF137BFF7A0F79B41210540F
:100A60007FE87E03120FE50210D5E4F548AB38AA03
:100A700039A93A1204CBFFE548D39F4003020C5139
:100A8000AB35AA36A9378548827583001204E4FF86
:100A9000642B600EEF642D6009EF642A6004EFB4EC
:100AA0002F078F47D202020C4CEFB42E17300204EE
:100AB000D2038002D201E4F54CF54B754A807549AA
:100AC0003F020C4C200145200242AB35AA36A93723
:100AD0008548827583001204E4FCE41202ABC00472
:100AE000C005C006C007E4FFFE7D207C41AB3EAAE6
:100AF0003DA93CA83B1200FBD003D002D001D0009E
:100B000012000AE4FBFA794078C2805E3001692065
:100B10000266AF4CAE4BAD4AAC497BCD7ACC79CCBA
:100B2000783D1200FB8F4C8E4B8D4A8C49AB3EAA10
:100B30003DA93CA83BC000C001C002C003AB35AA20
:100B400036A9378548827583001204E424D0FDE479
:100B500034FFFCE41202A6AB4CAA4BA94AA84912E6
:100B600000FBD003D002D001D00012000A8F3E8ECD
:100B70003D8D3C8C3B020C4C200342AB35AA36A980
:100B8000378548827583001204E4FCE41202ABC08E
:100B900004C005C006C007E4FFFE7D207C41AB42D7
:100BA000AA41A940A83F1200FBD003D002D001D037
:100BB0000012000AE4FBFA794078C2805B300365DA
:100BC000AF4CAE4BAD4AAC497BCD7ACC79CC783DBD
:100BD0001200FB8F4C8E4B8D4A8C49AB42AA41A927
:100BE00040A83FC000C001C002C003AB35AA36A96F
:100BF000378548827583001204E424D0FDE434FF75
:100C0000FCE41202A6AB4CAA4BA94AA8491200FB6D
:100C1000D003D002D001D00012000A8F428E418D45
:100C2000408C3F8027E4F53EF53DF53CF53BF54231
:100C3000F541F540F53FFD7F011210B97BFF7A0FBA
:100C400079C51210547FE87E03120FE50548020AA9
:100C50006DE54724D6603624FD601D24FE604324E4
:100C600004705CAF42AE41AD40AC3FAB3EAA3DA983
:100C70003CA83B12000A803DAB42AA41A940A83FD4
:100C8000AF3EAE3DAD3CAC3B1200068028AF42AE5D
:100C900041AD40AC3FAB3EAA3DA93CA83B1200FB96
:100CA0008013AB42AA41A940A83FAF3EAE3DAD3C48
:100CB000AC3B1202048F468E458D448C43800C85DC
:100CC0003E46853D45853C44853B43AB35AA36A928
:100CD000377D111210997550FF75510F7552D185DE
:100CE0004656854555854454854353AB35AA36A9A8
:100CF00037120607E4FD7F011210B9AB35AA36A9F9
:100D000037121054AB38AA39A93A74FF120533C20E
:080D100001C203C202E4F54731
:010D180022B8
:10000300020314E86480F8E933E83360110460F014
:10001300ED33EC337009E8FCE9FDEAFEEBFF220463
:1000230060DED3EB9FEA9EE99DE8C2E78CF0C2F75E
:1000330095F0400CE8CCF8E9CDF9EACEFAEBCFFB2A
:100043001202DF85D0F05804700320D5B3E80470A2
:10005300075002B2D502031E92D5EC0460F7E4CC3C
:10006300C0E0C398F8603B94186008400DD0E0FBF3
:100073000202F6E4FBFAC9FC8028E830E406E4C98E
:10008300FBE4CAFCE830E305E4C9CACBFCE8540747
:100093006010F8C3E913F9EA13FAEB13FBEC13FC52
:1000A300D8F130F52FC3E49CFCEF9BFFEE9AFEEDF5
:1000B30099FDD0E0FBEF4E4D4C701222DB0302039F
:1000C3001BEC2CFCEF33FFEE33FEED33FDED30E79D
:1000D300EB0202F6EF2BFFEE3AFEED39FDD0E0FB2B
:1000E30050130BBB000302031EED13FDEE13FEEFD3
:0800F30013FFEC13FC0202F6FE
:1000FB00EC4D6011E8497017ED33EC3304600DE4FF
:10010B00FCFFFEFD22E933E8330470F802031412FE
:10011B0002DF58046009E4CC248150062850090200
:10012B00031E28400302031BC0E0EB4A7044B98056
:10013B0006D0E0FB02030AEF4E701CBD8008EBFFFC
:10014B00EAFEE9FD80EBE98DF0A4FEE5F00201E4A7
:10015B00E9CDF9EAFEEBFFEF89F0A4FCE5F0CE89DF
:10016B00F0A42EFFE435F0CD89F0A42DFEE435F09C
:10017B008067EF4E7005BD80D780C3EF8BF0A4ACCA
:10018B00F0EE8BF0A42CFCE435F0F8EF8AF0A42C05
:10019B00E5F038FCE433CB8DF0A42CFCE5F03BF818
:1001AB00EE8AF0A42CFCE5F038F8E433CF89F0A408
:1001BB002CFCE5F038CF3400CE89F0A42FFFE5F00E
:1001CB003EFEE433C98DF0A42EFEE5F039CD8AF066
:1001DB00A42FFFE5F03EFEE43DFD33D0E0FB5007DE
:1001EB000BBB000F02031EEC2CFCEF33FFEE33FEB8
:0601FB00ED33FD0202F6E7
:1002010002031EEC5D046005E85904700302031447
:100211001202DF580460F6EC4860F2EC7004FDFE57
:10022100FF22C860DB2481C85009C39860025006D0
:1002310002031B9850CAF582E9294B4A7005AB822B
:1002410002030A75F0007C1A7880C3EF9BEE9AEDE9
:1002510099400DC3EF9BFFEE9AFEED99FDE842F048
:10026100DC23ACF0D0E0FFD0E0FED0E0FDAB82209B
:10027100E7101BEB60BAEC2CFCEF33FFEE33FEED25
:1002810033FD0202F6E803F830E705C0F075F0002F
:10029100EF2FFFEE33FEED33FD40B830E7C280AA09
:1002A10075F020800E75F010800575F0087D007ED8
:1002B100007F003392D530D503120567EC3340102F
:1002C100EF33FFEE33FEED33FDEC33FCD5F0ED22E1
:0E02D100E5F0247EA2D513CC92E7CDCEFF221D
:1005AB00E5642450F8E6056422784D300B02785050
:1005BB00E475F0011205750204CB2004EB7F2ED2FB
:1005CB00048018EF540F2490D43440D4FF30080B20
:1005DB00EF24BFB41A0050032461FFE565600215D8
:1005EB00650568E56870020567300B0D784DE4759D
:1005FB00F001120575EF02053302102D7403D20BB7
:10060B008003E4C20BF5648B4D8A4E894FE4F5658C
:10061B00F567F568E56560077F201205E680F575DF
:10062B0066FFC205C204C206C207C209C20AC20CD7
:10063B001205B4FF700D300B057F001205F7AF6884
:10064B00AE6722B4255FC2D5C2081205B4FF24D011
:10065B00B40A00501A75F00A786530D50508B6FF54
:10066B000106C6A426F620D5047002D20780D92431
:10067B00CFB41A00EF5004C2E5D2080208E4D20549
:10068B0080C6D20480C0D20680BCD2D580BAD20933
:10069B0080B47F201205E62006077401B565004083
:1006AB00F11205ABFF1205E602061FD20CD20A802F
:1006BB00951205ABFB1205ABFA1205ABF94A4B7061
:1006CB000679DB7A097BFF20062EE565602A7E0022
:1006DB008E827583001204E460060EEE656670F080
:1006EB00C2D5EBC0E0EAC0E0E9C0E0EE120944D0AD
:1006FB00E0F9D0E0FAD0E0FB1204CBFF60AAEBC02C
:10070B00E0EAC0E0E9C0E01205E6D0E02401F9D050
:10071B00E03400FAD0E0FBE5660460DCD566D980F6
:10072B0087D20680A212092760F7E56670010412D2
:10073B000329A966600DE566600914F5661209CEFA
:10074B00EF60F3EA30E702F404C3995077EAF4253B
:10075B00660430E701E404F566800D12092760C1D9
:10076B00EA05662566120329EA7863F630E701E4A9
:10077B00256604D5660420090114120944E4C0E07F
:10078B001209CE7863E6601320E70714F61205CE44
:10079B00802204F6D0E014C0E07F001205CEE5669F
:1007AB0060071205C51566800B3009031205C5D00D
:1007BB00E002061FD0E00480C512092760A0E566A1
:1007CB00041203297863EAF6E56620090260010446
:0507DB00240412094492
:1007E00074FF04C0E01209CE1205CEE566200902AE
:1007F00060031205C5D0E0B566E87F451205D878DC
:1008000063E67F2B30E7047F2DF404C0E01205E699
:10081000D0E075F00A84C0F01205CFD0E01205CF09
:1008200002061F791080027908C20AC20C8008D221
:10083000D5790A8004790AC2D5E566047002F566A6
:10084000E4FAFDFEFF1205ABFC7B08200513120540
:10085000ABFD7B1030040A1205ABFE1205ABFF7B2B
:1008600020EC3382D592D55013C3E43004069FFFA9
:10087000E49EFEE42005039DFDE49CFCE4CBF8C26D
:1008800005EC700CCFCECDCCE824F8F870F38017CF
:10089000C3EF33FFEE33FEED33FDEC33FCEB33FB04
:1008A000994002FB0FD8E9EB300505F8D0E0C448C9
:1008B000B205C0E00AEC4D4E4F78207B0070C2EAD2
:1008C000B5660040BCC0E0120946D0F0D0E020057B
:1008D00004C4C0E0C4B205C0F01205CFD0F0D5F01A
:1008E000EB02061F12058506BC53082358068D4CE3
:1008F00006894208274F082F44082F4906A24308BB
:10090000355507664607C44507304709FB50069131
:100910002D06952E06B82B06992306B62009E42A43
:10092000065148000006B0E566B4FF03756606127E
:1009300005ABFC1205ABFD1205ABFE1205ABFF7853
:100940005C020358790AA2D5200714300909B910AE
:10095000020404B9080104A2D5200A0250010420AF
:1009600006689206B565005034C0E07F2030071954
:100970007F30A206720A7209500F12099DC206C288
:100980000AC209C20C7F30800F300903E9C0E012AF
:1009900005E6300903D0E0F9D0E0B565CC300917A1
:1009A0007F30B9100C1205E67F583008077F788039
:1009B00003B908031205E63006057F2D0205E67F20
:1009C00020200CF87F2B200AF322920680CF7F0094
:1009D000B407005005245CF8E6FF22286E756C6CA5
:1009E0002900D2051205AB3005F8C205786530D56F
:1009F0000108F60206512D504349581205AB240355
:100A0000B405004001E49009F6931205D7743A1238
:0A0A100005D7D2077565040208231C
:1002DF00E9D2E7C933E833F892D5EDD2E7CD33EC65
:0702EF0033FC5002B2D522DE
:1002F600EC30E7100FBF000C0EBE00080DBD000469
:100306000BEB6014A2D5EB13FCED92E7FD2274FF14
:10031600FCFDFEFF22E480F8A2D574FF13FC7D806D
:03032600E480EF81
:10032900F920E72824F950037907E4F42402FB189B
:10033900DBFDE624FB5014E9600DE4F618E604F64B
:0F034900B40A08E4F6D9F57401F60A22C2D522E7
:10035800ED33EC3392D5FA602AB4FF33EDC2E77B74
:10036800FF60067A03797DE4227A03798620D50432
:100378007A037981224E614E002B494E46002D4961
:100388004E4600E47A08F608DAFC7B00740722E897
:10039800C0E0ECC0E0EDC0E0EEC0E0EFC0E0EA7520
:1003A800F010A4CAABF075F04DA42BFBE435F0FCBB
:1003B800EA2410FAEB34C5FBEC34D9FCEDC2E7FFB4
:1003C80075F056A4F42411C5F0F434C58FF0A42AAE
:1003D800E5F03BE43CF620E71412048BD0E0FFD0B4
:1003E800E0FED0E0FDD0E0FC1202048014F4041218
:1003F800048BD0E0FFD0E0FED0E0FDD0E0FC12009E
:10040800FBD0E0F8E6FAEDD2E7CD33EC332482FBFB
:10041800E4C3CF33CFCE33CECD33CD33DBF37B073D
:1004280075F00A846004F6081B0AE5F0F6088FF0F8
:10043800740AA4FFACF08EF0740AA42CFEACF05041
:10044800010C8DF0740AA42CFDE435F0F608DBDE0F
:0304580074072204
:10045B003F8000004120000042C80000447A0000A9
:10046B00461C400047C35000497424004B1896802B
:10047B004CBEBC205A0E1BCA6753C21C749DC5AE22
:10048B00FB60065407601C23231204B9EB5438603D
:10049B00091204A51204B41200FBECF8EDF9EEFA04
:1004AB00EFCB22EB1204B480F1543803241C9004DC
:1004BB005BFE93FC0EEE93FD0EEE930ECE93FF229E
:03000000020E539A
:0C0E5300787FE4F6D8FD758168020E9AE5
:1004CB00BB010689828A83E0225002E722BBFE022F
:0904DB00E32289828A83E4932262
:1004E400BB010CE58229F582E5833AF583E02250CD
:1004F40006E92582F8E622BBFE06E92582F8E22217
:0D050400E58229F582E5833AF583E4932230
:10051100BB010989828A83F8E028F022500327F77A
:1005210022BBFE05F8E328F3228A838982F8E4934B
:0205310028227E
:10053300BB010689828A83F0225002F722BBFE01A7
:02054300F322A1
:10054500F8BB010DE58229F582E5833AF583E8F0EC
:10055500225006E92582C8F622BBFE05E92582C898
:02056500F22280
:0E056700C3E49FFFE49EFEE49DFDE49CFC22A5
:10057500FAE6FB0808E6F925F0F618E6CA3AF62287
:10058500D083D082F8E4937012740193700DA3A305
:1005950093F8740193F5828883E473740293686019
:0605A500EFA3A3A380DF19
:10102D00EFB40A07740D121038740A309811A8998C
:10103D00B8130CC2983098FDA899C298B811F63023
:07104D0099FDC299F59922FB
:100E5F00020DC0E493A3F8E493A34003F68001F2DC
:100E6F0008DFF48029E493A3F85407240CC8C33394
:100E7F00C4540F4420C8834004F456800146F6DF63
:100E8F00E4800B01020408102040809010F9E47EEA
:100E9F00019360BCA3FF543F30E509541FFEE49358
:100EAF00A360010ECF54C025E060A840B8E493A31F
:100EBF00FAE493A3F8E493A3C8C582C8CAC583CA4A
:100ECF00F0A3C8C582C8CAC583CADFE9DEE780BE02
:0111030000EB
:00000001FF
