:1014660063616C63756C61746F720062696E5F684C
:0B147600657820636F6E76657274006D
:0214A500C10D77
:10105C007534FFC2001213967FF47E011213767B57
:10106C00007A0079237D1112142A120F9D8F22E52C
:10107C0022B4FF0280F4E5226423702AC200121409
:10108C00817BFF7A1479661213E57FE87E031213D5
:10109C00761214817B007A0079237D1112142A7543
:1010AC0034FFC20D80C4E52264247028D2001214CF
:1010BC00817BFF7A1479711213E57FE87E0312139A
:1010CC00761214817B007A0079237D1112142A7513
:1010DC0034FF8096200018753800753900753A3445
:1010EC0085223B7B007A00792312119F02107675C2
:1010FC003800753900753A3485223B7B007A0079CB
:07110C0023120E0F02107602
:101495003132332B3435362D3738392A302E3D2F1E
:0A14A7000808646323242526282981
:10140A00E4FDFCC3ED9FEC9E5015E4FBFA0BBB0018
:0F141A00010AEB64704A70F50DBD00010C80E40F
:0114290022A0
:100F9D00E4F53575B0FFE5B0F460417F147E0012C5
:100FAD00140AE5B0F46035AFB0EF2409602324FCDA
:100FBD00601724FE600B147020E5B0B4FFFBAF0882
:100FCD0022E5B0B4FDFBAF0922E5B0B4FBFBAF0ADF
:100FDD0022E5B0B4F7FBAF0B227FFF2275B0F0E531
:100FED00B064F060677F147E0012140AE5B064F0FF
:100FFD00605CAFB0EF2490601B24C0601224E060F1
:10100D000924F07012753501800D75350280087553
:10101D003503800375350475B00FAFB0EF24F9605B
:10102D001824FC601024FE6008147013853535807B
:10103D000E7404800674088002740C2535F535E5B0
:0E104D00B0B40FFBE53590149493FF227FFFA3
:01105B002272
:0F136700C291C2A58F807F027E00121376D2A59D
:10137600E4FDFCC3ED9FEC9E5015E4FBFA0BBB00AD
:0F138600010AEB64704A70F50DBD00010C80E4A4
:011395002235
:0814B200C290121367C2A522CB
:0814BA00D290121367C2A522B3
:1013E5008B548A558956AB54AA55A9561205C16026
:1013F500130556E5567002055514F91205C1FF127D
:0514050014BA80E22290
:0514C2007F0C0214B2D2
:0514C7007F080214B2D1
:10144A008F54A905E5547007E92480FF1214B2E508
:0C145A0054B40107E924C0FF1214B222B0
:101481007F381214B27F0C1214B27F061214B27F8D
:04149100010214B28E
:1012130057656C636F6D652100627973630073704A
:10122300616365206F766572666C6F7765720073B4
:1012330070616365206E756C6C006E6F7468696EA7
:101243006720746F207072696E7400756E657870B4
:10125300206572726F7200252E366600696E7661A4
:101263006C696420696E70757400000000000000F2
:101396001214817BFF7A1279131213E5E4FD7F01A3
:1013A60012144A7BFF7A12791C1213E57FF47E0130
:0813B6001213767F010214B24C
:06142A008B548A5589561F
:10143000E4FFEFC39D5012AB54AA55A9568F827595
:091440008300E412063B0F80E971
:011449002280
:1012C9008B3C8A3D893EAB3FAA40A9411205C1B476
:1012D9000F1F1214817BFF7A1279211213E57FE81F
:1012E9007E03121376121481AB3CAA3DA93E021368
:1012F900E5AB3FAA40A94174011206071205C1AB2B
:101309003CAA3DA93EF582758300E54212063BAF32
:05131900421214BA228B
:101273008B3C8A3D893EAB3FAA40A9411205C1B4CC
:10128300FF151214817BFF7A1279321213E57FE87E
:101293007E031213768023AB3FAA40A9411205C1F6
:1012A300AB3CAA3DA93EF582758300E412063BAB35
:1012B3003FAA40A94174FF120607121481AB3CAA4E
:0612C3003DA93E0213E507
:060B10008B3C8A3D893E8A
:100B1600E4F545F544F543F542F549F548F547F55D
:100B260046F54DF54CF54BF54AC201C202C203F536
:100B36004EF553F55275518075503FAB3FAA40A90B
:100B4600411205C1B4FF137BFF7A12793D1213E5FA
:100B56007FE87E03121376021481E4F54FAB3FAAB9
:100B660040A9411205C1FFE54FD39F4003020D473F
:100B7600AB3CAA3DA93E854F827583001205DAFF7C
:100B8600642B600EEF642D6009EF642A6004EFB4F5
:100B96002F078F4ED202020D42EFB42E17300204F9
:100BA600D2038002D201E4F553F552755180755097
:100BB6003F020D42200145200242AB3CAA3DA93E20
:100BC600854F827583001205DAFCE41202ABC0047D
:100BD600C005C006C007E4FFFE7D207C41AB45AAE8
:100BE60044A943A8421200FBD003D002D001D00092
:100BF60012000AE4FBFA794078C2805E300169206F
:100C06000266AF53AE52AD51AC507BCD7ACC79CCA7
:100C1600783D1200FB8F538E528D518C50AB45AAF6
:100C260044A943A842C000C001C002C003AB3CAA0D
:100C36003DA93E854F827583001205DA24D0FDE476
:100C460034FFFCE41202A6AB53AA52A951A85012D3
:100C560000FBD003D002D001D00012000A8F458ECF
:100C6600448D438C42020D42200342AB3CAA3DA96F
:100C76003E854F827583001205DAFCE41202ABC092
:100C860004C005C006C007E4FFFE7D207C41AB49D9
:100C9600AA48A947A8461200FBD003D002D001D02B
:100CA6000012000AE4FBFA794078C2805B300365E3
:100CB600AF53AE52AD51AC507BCD7ACC79CC783DAA
:100CC6001200FB8F538E528D518C50AB49AA48A906
:100CD60047A846C000C001C002C003AB3CAA3DA95C
:100CE6003E854F827583001205DA24D0FDE434FF79
:100CF600FCE41202A6AB53AA52A951A8501200FB5B
:100D0600D003D002D001D00012000A8F498E488D40
:100D1600478C468027E4F545F544F543F542F54909
:100D2600F548F547F546FD7F0112144A7BFF7A1216
:100D3600794E1213E57FE87E03121376054F020BF8
:100D460063E54E24D6603624FD601D24FE604324F0
:100D560004705CAF49AE48AD47AC46AB45AA44A962
:100D660043A84212000A803DAB49AA48A947A846B3
:100D7600AF45AE44AD43AC421200068028AF49AE43
:100D860048AD47AC46AB45AA44A943A8421200FB6E
:100D96008013AB49AA48A947A846AF45AE44AD4320
:100DA600AC421202048F4D8E4C8D4B8C4A800C85C2
:100DB600454D85444C85434B85424AAB3CAA3DA9EB
:100DC6003E7D1112142A7557FF75581275595A85AA
:100DD6004D5D854C5C854B5B854A5AAB3CAA3DA96B
:100DE6003E1206FDE4FD7F0112144AAB3CAA3DA962
:100DF6003E1213E5AB3FAA40A94174FF120629C271
:080E060001C203C202E4F54E33
:010E0E0022C1
:10119F008B358A368937300D06121481C20D22E540
:1011AF003BB43D1585383F853940853A41AB35AA6B
:1011BF0036A937120B10D20D22E53BB464128538D5
:1011CF003F853940853A41AB35AA36A937021273AC
:1011DF00E53BB46319121481AB35AA36A9377D11DB
:1011EF0012142AAB38AA39A93A74FF020629853896
:1011FF003F853940853A41853B42AB35AA36A93701
:04120F001212C922CC
:10131E008B458A468947AB48AA49A94A1205C1B4EA
:10132E00FF131214817BFF7A1279321213E57FE8D4
:10133E007E03021376AB48AA49A94A1205C1AB45F2
:10134E00AA46A947F582758300E412063BAB48AA6C
:09135E0049A94A74FF1206072296
:060E0F008B358A3689379D
:100E1500E4F53CF53D783E7C00FD7BFF7A12796D6B
:100E2500FE7F0612059BE53BB46414853848853979
:100E350049853A4AAB35AA36A93712131E807BE598
:100E45003BB46319121481AB35AA36A9377D11124B
:100E5500142AAB38AA39A93A74FF020629E53B647E
:100E6500306018E53B643160121214817BFF7A1201
:100E7500795F1213E57FF47E01801CAB38AA39A98E
:100E85003A1205C1B40F151214817BFF7A1279212C
:100E95001213E57FE87E03121376801EAB38AA395C
:100EA500A93A74011206071205C1AB35AA36A9374E
:100EB500F582758300E53B12063BE4F544AB38AAA1
:100EC50039A93A1205C1FFE544D39F502EAB35AA87
:100ED50036A9378544827583001205DAFD7C00E565
:100EE5003D25E0FFE53C33FEEF2DFFEC3ECF24D062
:100EF500F53DEF34FFF53C054480C2E4F544C37489
:100F050003954425E025E0FDFCED2404FFE433FED4
:100F1500ECC39FEE6480F87480985032E53DAE3C9A
:100F2500A804088005CEC313CE13D8F97E0054015A
:100F3500FFC3EC9DFBEFA803088005C333CE33CE7A
:100F4500D8F9FF743E2544F8EF26F60C80BB743EB5
:100F55002544F8E6FFC39400400CEFD394095006EE
:100F6500743026F6800AEFC3940A4004E62437F667
:100F75007542480544E54464047083121481AB3519
:100F8500AA36A9371213E5E4FD7F0112144A7B0046
:070F95007A00793E1213E51A
:010F9C002232
:10000300020314E86480F8E933E83360110460F014
:10001300ED33EC337009E8FCE9FDEAFEEBFF220463
:1000230060DED3EB9FEA9EE99DE8C2E78CF0C2F75E
:1000330095F0400CE8CCF8E9CDF9EACEFAEBCFFB2A
:100043001202DF85D0F05804700320D5B3E80470A2
:10005300075002B2D502031E92D5EC0460F7E4CC3C
:10006300C0E0C398F8603B94186008400DD0E0FBF3
:100073000202F6E4FBFAC9FC8028E830E406E4C98E
:10008300FBE4CAFCE830E305E4C9CACBFCE8540747
:100093006010F8C3E913F9EA13FAEB13FBEC13FC52
:1000A300D8F130F52FC3E49CFCEF9BFFEE9AFEEDF5
:1000B30099FDD0E0FBEF4E4D4C701222DB0302039F
:1000C3001BEC2CFCEF33FFEE33FEED33FDED30E79D
:1000D300EB0202F6EF2BFFEE3AFEED39FDD0E0FB2B
:1000E30050130BBB000302031EED13FDEE13FEEFD3
:0800F30013FFEC13FC0202F6FE
:1000FB00EC4D6011E8497017ED33EC3304600DE4FF
:10010B00FCFFFEFD22E933E8330470F802031412FE
:10011B0002DF58046009E4CC248150062850090200
:10012B00031E28400302031BC0E0EB4A7044B98056
:10013B0006D0E0FB02030AEF4E701CBD8008EBFFFC
:10014B00EAFEE9FD80EBE98DF0A4FEE5F00201E4A7
:10015B00E9CDF9EAFEEBFFEF89F0A4FCE5F0CE89DF
:10016B00F0A42EFFE435F0CD89F0A42DFEE435F09C
:10017B008067EF4E7005BD80D780C3EF8BF0A4ACCA
:10018B00F0EE8BF0A42CFCE435F0F8EF8AF0A42C05
:10019B00E5F038FCE433CB8DF0A42CFCE5F03BF818
:1001AB00EE8AF0A42CFCE5F038F8E433CF89F0A408
:1001BB002CFCE5F038CF3400CE89F0A42FFFE5F00E
:1001CB003EFEE433C98DF0A42EFEE5F039CD8AF066
:1001DB00A42FFFE5F03EFEE43DFD33D0E0FB5007DE
:1001EB000BBB000F02031EEC2CFCEF33FFEE33FEB8
:0601FB00ED33FD0202F6E7
:1002010002031EEC5D046005E85904700302031447
:100211001202DF580460F6EC4860F2EC7004FDFE57
:10022100FF22C860DB2481C85009C39860025006D0
:1002310002031B9850CAF582E9294B4A7005AB822B
:1002410002030A75F0007C1A7880C3EF9BEE9AEDE9
:1002510099400DC3EF9BFFEE9AFEED99FDE842F048
:10026100DC23ACF0D0E0FFD0E0FED0E0FDAB82209B
:10027100E7101BEB60BAEC2CFCEF33FFEE33FEED25
:1002810033FD0202F6E803F830E705C0F075F0002F
:10029100EF2FFFEE33FEED33FD40B830E7C280AA09
:1002A10075F020800E75F010800575F0087D007ED8
:1002B100007F003392D530D50312065DEC33401038
:1002C100EF33FFEE33FEED33FDEC33FCD5F0ED22E1
:0E02D100E5F0247EA2D513CC92E7CDCEFF221D
:1006A100E56B2457F8E6056B227854300B02785736
:1006B100E475F00112066B0205C12004EB7F2ED216
:1006C100048018EF540F2490D43440D4FF30080B29
:1006D100EF24BFB41A0050032461FFE56C600215DA
:1006E1006C056FE56F7002056E300B0D7854E47583
:1006F100F00112066BEF0206290213BE7403D20B3E
:100701008003E4C20BF56B8B548A558956E4F56C72
:10071100F56EF56FE56C60077F201206DC80F575DC
:100721006DFFC205C204C206C207C209C20AC20CD9
:100731001206AAFF700D300B057F001206EDAF6F98
:10074100AE6E22B4255FC2D5C2081206AAFF24D01C
:10075100B40A00501A75F00A786C30D50508B6FF56
:100761000106C6A426F620D5047002D20780D9243A
:10077100CFB41A00EF5004C2E5D2080209DAD2055B
:1007810080C6D20480C0D20680BCD2D580BAD2093C
:1007910080B47F201206DC2006077401B56C00408E
:1007A100F11206A1FF1206DC020715D20CD20A8053
:1007B100951206A1FB1206A1FA1206A1F94A4B7085
:1007C1000679D17A0A7BFF20062EE56C602A7E002D
:1007D1008E827583001205DA60060EEE656D70F08B
:1007E100C2D5EBC0E0EAC0E0E9C0E0EE120A3AD0BF
:1007F100E0F9D0E0FAD0E0FB1205C1FF60AAEBC03E
:10080100E0EAC0E0E9C0E01206DCD0E02401F9D062
:10081100E03400FAD0E0FBE56D0460DCD56DD980F1
:1008210087D20680A2120A1D60F7E56D70010412DD
:100831000329A96D600DE56D600914F56D120AC4F7
:10084100EF60F3EA30E702F404C3995077EAF42544
:100851006D0430E701E404F56D800D120A1D60C1DD
:10086100EA056D256D120329EA786AF630E701E49D
:10087100256D04D56D0420090114120A3AE4C0E083
:10088100120AC4786AE6601320E70714F61206C458
:10089100802204F6D0E014C0E07F001206C4E56DAA
:1008A10060071206BB156D800B3009031206BBD021
:1008B100E0020715D0E00480C5120A1D60A0E56DB5
:1008C10004120329786AEAF6E56D20090260010441
:0508D1002404120A3AA4
:1008D60074FF04C0E0120AC41206C4E56D200902C2
:1008E60060031206BBD0E0B56DE87F451206CE78F0
:1008F6006AE67F2B30E7047F2DF404C0E01206DCA5
:10090600D0E075F00A84C0F01206C5D0E01206C524
:10091600020715791080027908C20AC20C8008D233
:10092600D5790A8004790AC2D5E56D047002F56DA1
:10093600E4FAFDFEFF1206A1FC7B08200513120651
:10094600A1FD7B1030040A1206A1FE1206A1FF7B50
:1009560020EC3382D592D55013C3E43004069FFFB2
:10096600E49EFEE42005039DFDE49CFCE4CBF8C276
:1009760005EC700CCFCECDCCE824F8F870F38017D8
:10098600C3EF33FFEE33FEED33FDEC33FCEB33FB0D
:10099600994002FB0FD8E9EB300505F8D0E0C448D2
:1009A600B205C0E00AEC4D4E4F78207B0070C2EADB
:1009B600B56D0040BCC0E0120A3CD0F0D0E0200586
:1009C60004C4C0E0C4B205C0F01206C5D0F0D5F02C
:1009D600EB02071512067B07B25309195807834C19
:1009E600077F42091D4F09254409254907984309F0
:1009F6002B55085C4608BA450826470AF150078772
:100A06002D078B2E07AE2B078F2307AC200ADA2A79
:100A1600074748000007A6E56DB4FF03756D06128B
:100A260006A1FC1206A1FD1206A1FE1206A1FF7880
:100A360063020358790AA2D5200714300909B910B0
:100A4600020404B9080104A2D5200A0250010420B8
:100A560006689206B56C005034C0E07F2030071956
:100A66007F30A206720A7209500F120A93C206C29A
:100A76000AC209C20C7F30800F300903E9C0E012B8
:100A860006DC300903D0E0F9D0E0B56CCC300917AC
:100A96007F30B9100C1206DC7F583008077F78804B
:100AA60003B908031206DC3006057F2D0206DC7F3B
:100AB60020200CF87F2B200AF322920680CF7F009D
:100AC600B4070050052463F8E6FF22286E756C6CA7
:100AD6002900D2051206A13005F8C205786C30D57A
:100AE6000108F60207472D504349581206A1240370
:100AF600B405004001E4900AEC931206CD743A1254
:0A0B060006CDD207756C0402091930
:1002DF00E9D2E7C933E833F892D5EDD2E7CD33EC65
:0702EF0033FC5002B2D522DE
:1002F600EC30E7100FBF000C0EBE00080DBD000469
:100306000BEB6014A2D5EB13FCED92E7FD2274FF14
:10031600FCFDFEFF22E480F8A2D574FF13FC7D806D
:03032600E480EF81
:10032900F920E72824F950037907E4F42402FB189B
:10033900DBFDE624FB5014E9600DE4F618E604F64B
:0F034900B40A08E4F6D9F57401F60A22C2D522E7
:10035800ED33EC3392D5FA602AB4FF33EDC2E77B74
:10036800FF60067A03797DE4227A03798620D50432
:100378007A037981224E614E002B494E46002D4961
:100388004E4600E47A08F608DAFC7B00740722E897
:10039800C0E0ECC0E0EDC0E0EEC0E0EFC0E0EA7520
:1003A800F010A4CAABF075F04DA42BFBE435F0FCBB
:1003B800EA2410FAEB34C5FBEC34D9FCEDC2E7FFB4
:1003C80075F056A4F42411C5F0F434C58FF0A42AAE
:1003D800E5F03BE43CF620E71412048BD0E0FFD0B4
:1003E800E0FED0E0FDD0E0FC1202048014F4041218
:1003F800048BD0E0FFD0E0FED0E0FDD0E0FC12009E
:10040800FBD0E0F8E6FAEDD2E7CD33EC332482FBFB
:10041800E4C3CF33CFCE33CECD33CD33DBF37B073D
:1004280075F00A846004F6081B0AE5F0F6088FF0F8
:10043800740AA4FFACF08EF0740AA42CFEACF05041
:10044800010C8DF0740AA42CFDE435F0F608DBDE0F
:0304580074072204
:10045B003F8000004120000042C80000447A0000A9
:10046B00461C400047C35000497424004B1896802B
:10047B004CBEBC205A0E1BCA6753C21C749DC5AE22
:10048B00FB60065407601C23231204B9EB5438603D
:10049B00091204A51204B41200FBECF8EDF9EEFA04
:1004AB00EFCB22EB1204B480F1543803241C9004DC
:1004BB005BFE93FC0EEE93FD0EEE930ECE93FF229E
:03000000021113D7
:0C111300787FE4F6D8FD75816F02115A58
:1004CB00E709F608DFFA8046E709F208DFFA803E13
:1004DB0088828C83E709F0A3DFFA8032E309F60800
:1004EB00DFFA8078E309F208DFFA807088828C8368
:1004FB00E309F0A3DFFA806489828A83E0A3F6081C
:10050B00DFFA805889828A83E0A3F208DFFA804CF5
:10051B0080D280FA80C680D4806980F280338010CC
:10052B0080A680EA809A80A880DA80E280CA803335
:10053B0089828A83ECFAE493A3C8C582C8CCC583AD
:10054B00CCF0A3C8C582C8CCC583CCDFE9DEE7807D
:10055B000D89828A83E493A3F608DFF9ECFAA9F0FC
:10056B00EDFB2289828A83ECFAE0A3C8C582C8CC52
:10057B00C583CCF0A3C8C582C8CCC583CCDFEADE6B
:10058B00E880DB89828A83E493A3F208DFF980CCCD
:10059B0088F0EF60010E4E60C388F0ED2402B404C6
:1005AB000050B9F582EB2402B4040050AF2323456D
:0605BB00822390051B7372
:1005C100BB010689828A83E0225002E722BBFE0238
:0905D100E32289828A83E493226B
:1005DA00BB010CE58229F582E5833AF583E02250D6
:1005EA0006E92582F8E622BBFE06E92582F8E22220
:0D05FA00E58229F582E5833AF583E493223A
:10060700BB010989828A83F8E028F022500327F783
:1006170022BBFE05F8E328F3228A838982F8E49354
:02062700282287
:10062900BB010689828A83F0225002F722BBFE01B0
:02063900F322AA
:10063B00F8BB010DE58229F582E5833AF583E8F0F5
:10064B00225006E92582C8F622BBFE05E92582C8A1
:02065B00F22289
:0E065D00C3E49FFFE49EFEE49DFDE49CFC22AE
:10066B00FAE6FB0808E6F925F0F618E6CA3AF62290
:10067B00D083D082F8E4937012740193700DA3A30E
:10068B0093F8740193F5828883E473740293686022
:06069B00EFA3A3A380DF22
:1013BE00EFB40A07740D1213C9740A309811A89964
:1013CE00B8130CC2983098FDA899C298B811F6308F
:0713DE0099FDC299F5992267
:10111F0002105CE493A3F8E493A34003F68001F27A
:10112F0008DFF48029E493A3F85407240CC8C333D1
:10113F00C4540F4420C8834004F456800146F6DFA0
:10114F00E4800B01020408102040809014A5E47E77
:10115F00019360BCA3FF543F30E509541FFEE49395
:10116F00A360010ECF54C025E060A840B8E493A35C
:10117F00FAE493A3F8E493A3C8C582C8CAC583CA87
:10118F00F0A3C8C582C8CAC583CADFE9DEE780BE3F
:0114B100003A
:00000001FF
