:060D2E0025302E356600A1
:1009D600E4F541120C307FF47E01120C10120B8BE1
:1009E6008F22EF24C36046243E60F224D5B406006D
:1009F6004003020B03900A0975F003A4C58325F092
:100A0600C58373020AF1020AE3020B03020AEA0231
:100A16000A1B020AF8120CE0E4F536F535F534F552
:100A260033F53AF539F538F537F54180B07F3D12A3
:100A36000D26E4FD7F01120CC4E54124D660362460
:100A4600FD601D24FE60432404705CAF3AAE39ADF0
:100A560038AC37AB36AA35A934A83312000A803D24
:100A6600AB3AAA39A938A837AF36AE35AD34AC3370
:100A76001200068028AF3AAE39AD38AC37AB36AA8D
:100A860035A934A8331200FB8013AB3AAA39A9382A
:100A9600A837AF36AE35AD34AC331202048F3E8E76
:100AA6003D8D3C8C3B800C85363E85353D85343C02
:100AB60085333B7545FF75460D75472E853E4B853F
:100AC6003D4A853C49853B487B007A0079231205DF
:100AD600C37B007A007923120C7F0209E375412B50
:100AE6007F2B801375412D7F2D800C75412A7F2A1F
:100AF600800575412F7F2F120D260209E3AF2212C2
:100B06000D26E541703FFFFE7D207C41AB36AA35C0
:100B1600A934A8331200FBC004C005C006C007AC48
:100B260022E41202ABD003D002D001D00012000A98
:100B3600E4FBFA794078C212000A8F368E358D347E
:100B46008C330209E3E4FFFE7D207C41AB3AAA39EF
:100B5600A938A8371200FBC004C005C006C007AC00
:100B660022E41202ABD003D002D001D00012000A58
:100B7600E4FBFA794078C212000A8F3A8E398D3832
:050B86008C370209E3B9
:100CF4003132332B3435362D3738392A302E3D2FC7
:100CA400E4FDFCC3ED9FEC9E5015E4FBFA0BBB0086
:0F0CB400010AEB64704A70F50DBD00010C80E47D
:010CC300220E
:100B8B00E4F54275B0F0E5B064F060677F147E0069
:100B9B00120CA4E5B064F0605CAFB0EF2490601B66
:100BAB0024C0601224E0600924F0701275420180A9
:100BBB000D7542028008754203800375420475B0BF
:100BCB000FAFB0EF24F9601824FC601024FE60080E
:100BDB00147013854242800E7404800674088002E0
:100BEB00740C2542F542E5B0B40FFBE542900CF3D3
:050BFB0093FF227FFFC3
:010C000022D1
:0F0C0100C291C2A58F807F027E00120C10D2A577
:100C1000E4FDFCC3ED9FEC9E5015E4FBFA0BBB001A
:0F0C2000010AEB64704A70F50DBD00010C80E411
:010C2F0022A2
:080D1E00C290120C01C2A522D3
:080D2600D290120C01C2A522BB
:100C7F008B428A438944AB42AA43A9441204CB60F6
:100C8F00130544E5447002054314F91204CBFF1217
:050C9F000D2680E22299
:050D34007F0C020D1E02
:050D39007F08020D1E01
:100CC4008F42A905E5427007E92480FF120D1EE555
:0C0CD40042B40107E924C0FF120D1E22EB
:100CE0007F38120D1E7F0C120D1E7F06120D1E7F07
:040CF00001020D1ED2
:0E0D040057656C636F6D652100627973630043
:100C3000120CE07BFF7A0D7904120C7FE4FD7F013A
:100C4000120CC47BFF7A0D790D120C7F7FF47E01AC
:080C5000120C107F01020D1EC1
:10000300020314E86480F8E933E83360110460F014
:10001300ED33EC337009E8FCE9FDEAFEEBFF220463
:1000230060DED3EB9FEA9EE99DE8C2E78CF0C2F75E
:1000330095F0400CE8CCF8E9CDF9EACEFAEBCFFB2A
:100043001202DF85D0F05804700320D5B3E80470A2
:10005300075002B2D502031E92D5EC0460F7E4CC3C
:10006300C0E0C398F8603B94186008400DD0E0FBF3
:100073000202F6E4FBFAC9FC8028E830E406E4C98E
:10008300FBE4CAFCE830E305E4C9CACBFCE8540747
:100093006010F8C3E913F9EA13FAEB13FBEC13FC52
:1000A300D8F130F52FC3E49CFCEF9BFFEE9AFEEDF5
:1000B30099FDD0E0FBEF4E4D4C701222DB0302039F
:1000C3001BEC2CFCEF33FFEE33FEED33FDED30E79D
:1000D300EB0202F6EF2BFFEE3AFEED39FDD0E0FB2B
:1000E30050130BBB000302031EED13FDEE13FEEFD3
:0800F30013FFEC13FC0202F6FE
:1000FB00EC4D6011E8497017ED33EC3304600DE4FF
:10010B00FCFFFEFD22E933E8330470F802031412FE
:10011B0002DF58046009E4CC248150062850090200
:10012B00031E28400302031BC0E0EB4A7044B98056
:10013B0006D0E0FB02030AEF4E701CBD8008EBFFFC
:10014B00EAFEE9FD80EBE98DF0A4FEE5F00201E4A7
:10015B00E9CDF9EAFEEBFFEF89F0A4FCE5F0CE89DF
:10016B00F0A42EFFE435F0CD89F0A42DFEE435F09C
:10017B008067EF4E7005BD80D780C3EF8BF0A4ACCA
:10018B00F0EE8BF0A42CFCE435F0F8EF8AF0A42C05
:10019B00E5F038FCE433CB8DF0A42CFCE5F03BF818
:1001AB00EE8AF0A42CFCE5F038F8E433CF89F0A408
:1001BB002CFCE5F038CF3400CE89F0A42FFFE5F00E
:1001CB003EFEE433C98DF0A42EFEE5F039CD8AF066
:1001DB00A42FFFE5F03EFEE43DFD33D0E0FB5007DE
:1001EB000BBB000F02031EEC2CFCEF33FFEE33FEB8
:0601FB00ED33FD0202F6E7
:1002010002031EEC5D046005E85904700302031447
:100211001202DF580460F6EC4860F2EC7004FDFE57
:10022100FF22C860DB2481C85009C39860025006D0
:1002310002031B9850CAF582E9294B4A7005AB822B
:1002410002030A75F0007C1A7880C3EF9BEE9AEDE9
:1002510099400DC3EF9BFFEE9AFEED99FDE842F048
:10026100DC23ACF0D0E0FFD0E0FED0E0FDAB82209B
:10027100E7101BEB60BAEC2CFCEF33FFEE33FEED25
:1002810033FD0202F6E803F830E705C0F075F0002F
:10029100EF2FFFEE33FEED33FD40B830E7C280AA09
:1002A10075F020800E75F010800575F0087D007ED8
:1002B100007F003392D530D503120523EC33401073
:1002C100EF33FFEE33FEED33FDEC33FCD5F0ED22E1
:0E02D100E5F0247EA2D513CC92E7CDCEFF221D
:10056700E5592445F8E605592278423009027845CD
:10057700E475F0011205310204CB2002EB7F2ED285
:10058700028018EF540F2490D43440D4FF30060B68
:10059700EF24BFB41A0050032461FFE55A60021527
:1005A7005A055DE55D7002055C30090D7842E4751A
:1005B700F001120531EF020511020C587403D2093C
:1005C7008003E4C209F5598B428A438944E4F55A0A
:1005D700F55CF55DE55A60077F201205A280F57589
:1005E7005BFFC203C202C204C205C207C208C20A35
:1005F700120570FF700D3009057F001205B3AF5D5E
:10060700AE5C22B4255FC2D5C206120570FF24D0A6
:10061700B40A00501A75F00A785A30D50508B6FFA3
:100627000106C6A426F620D5047002D20580D92477
:10063700CFB41A00EF5004C2E5D2060208A0D203D5
:1006470080C6D20280C0D20480BCD2D580BAD2077D
:1006570080B47F201205A22004077401B55A004018
:10066700F1120567FF1205A20205DBD20AD2088044
:1006770095120567FB120567FA120567F94A4B7071
:100687000679977A097BFF20042EE55A602A7E00B7
:100697008E827583001204E460060EEE655B70F0CF
:1006A700C2D5EBC0E0EAC0E0E9C0E0EE120900D035
:1006B700E0F9D0E0FAD0E0FB1204CBFF60AAEBC070
:1006C700E0EAC0E0E9C0E01205A2D0E02401F9D0D9
:1006D700E03400FAD0E0FBE55B0460DCD55BD98051
:1006E70087D20480A21208E360F7E55B7001041269
:1006F7000329A95B600DE55B600914F55B12098AA4
:10070700EF60F3EA30E702F404C3995077EAF4257F
:100717005B0430E701E404F55B800D1208E360C178
:10072700EA055B255B120329EA7858F630E701E40E
:10073700255B04D55B0420070114120900E4C0E01F
:1007470012098A7858E6601320E70714F612058A1B
:10075700802204F6D0E014C0E07F0012058AE55B32
:100767006007120581155B800B300703120581D0E6
:10077700E00205DBD0E00480C51208E360A0E55B7A
:10078700041203297858EAF6E55B200702600104A2
:0507970024041209001A
:10079C0074FF04C0E012098A12058AE55B20070287
:1007AC006003120581D0E0B55BE87F4512059478B3
:1007BC0058E67F2B30E7047F2DF404C0E01205A22D
:1007CC00D0E075F00A84C0F012058BD0E012058BD6
:1007DC000205DB791080027908C208C20A8008D2AF
:1007EC00D5790A8004790AC2D5E55B047002F55B01
:1007FC00E4FAFDFEFF120567FC7B082003131205CB
:10080C0067FD7B1030020A120567FE120567FF7B3D
:10081C0020EC3382D592D55013C3E43002069FFFEF
:10082C00E49EFEE42003039DFDE49CFCE4CBF8C2B3
:10083C0003EC700CCFCECDCCE824F8F870F3801715
:10084C00C3EF33FFEE33FEED33FDEC33FCEB33FB48
:10085C00994002FB0FD8E9EB300305F8D0E0C4480F
:10086C00B203C0E00AEC4D4E4F78207B0070C2EA18
:10087C00B55B0040BCC0E0120902D0F0D0E0200310
:10088C0004C4C0E0C4B203C0F012058BD0F0D5F0A4
:10089C00EB0205DB12054106785307DF5806494C7D
:1008AC0006454207E34F07EB4407EB49065E430757
:1008BC00F15507224607804506EC4709B750064D0F
:1008CC002D06512E06742B06552306722009A02ADC
:1008DC00060D480000066CE55BB4FF03755B061261
:1008EC000567FC120567FD120567FE120567FF78A8
:1008FC0051020358790AA2D5200514300709B91002
:10090C00020404B9080104A2D520080250010420F5
:10091C0004689204B55A005034C0E07F20300519A9
:10092C007F30A20472087207500F120959C204C218
:10093C0008C207C20A7F30800F300703E9C0E012FB
:10094C0005A2300703D0E0F9D0E0B55ACC30071738
:10095C007F30B9100C1205A27F583006077F7880C3
:10096C0003B908031205A23004057F2D0205A27FEE
:10097C0020200AF87F2B2008F322920480CF7F00DE
:10098C00B4070050052451F8E6FF22286E756C6CF4
:10099C002900D2031205673003F8C203785A30D508
:1009AC000108F602060D2D50434958120567240321
:1009BC00B405004001E49009B293120593743A1205
:0A09CC000593D205755A040207DFF7
:1002DF00E9D2E7C933E833F892D5EDD2E7CD33EC65
:0702EF0033FC5002B2D522DE
:1002F600EC30E7100FBF000C0EBE00080DBD000469
:100306000BEB6014A2D5EB13FCED92E7FD2274FF14
:10031600FCFDFEFF22E480F8A2D574FF13FC7D806D
:03032600E480EF81
:10032900F920E72824F950037907E4F42402FB189B
:10033900DBFDE624FB5014E9600DE4F618E604F64B
:0F034900B40A08E4F6D9F57401F60A22C2D522E7
:10035800ED33EC3392D5FA602AB4FF33EDC2E77B74
:10036800FF60067A03797DE4227A03798620D50432
:100378007A037981224E614E002B494E46002D4961
:100388004E4600E47A08F608DAFC7B00740722E897
:10039800C0E0ECC0E0EDC0E0EEC0E0EFC0E0EA7520
:1003A800F010A4CAABF075F04DA42BFBE435F0FCBB
:1003B800EA2410FAEB34C5FBEC34D9FCEDC2E7FFB4
:1003C80075F056A4F42411C5F0F434C58FF0A42AAE
:1003D800E5F03BE43CF620E71412048BD0E0FFD0B4
:1003E800E0FED0E0FDD0E0FC1202048014F4041218
:1003F800048BD0E0FFD0E0FED0E0FDD0E0FC12009E
:10040800FBD0E0F8E6FAEDD2E7CD33EC332482FBFB
:10041800E4C3CF33CFCE33CECD33CD33DBF37B073D
:1004280075F00A846004F6081B0AE5F0F6088FF0F8
:10043800740AA4FFACF08EF0740AA42CFEACF05041
:10044800010C8DF0740AA42CFDE435F0F608DBDE0F
:0304580074072204
:10045B003F8000004120000042C80000447A0000A9
:10046B00461C400047C35000497424004B1896802B
:10047B004CBEBC205A0E1BCA6753C21C749DC5AE22
:10048B00FB60065407601C23231204B9EB5438603D
:10049B00091204A51204B41200FBECF8EDF9EEFA04
:1004AB00EFCB22EB1204B480F1543803241C9004DC
:1004BB005BFE93FC0EEE93FD0EEE930ECE93FF229E
:03000000020D12DC
:0C0D1200787FE4F6D8FD75815D0209D6FB
:1004CB00BB010689828A83E0225002E722BBFE022F
:0904DB00E32289828A83E4932262
:1004E400BB010CE58229F582E5833AF583E02250CD
:1004F40006E92582F8E622BBFE06E92582F8E22217
:0D050400E58229F582E5833AF583E4932230
:10051100BB010689828A83F0225002F722BBFE01C9
:02052100F322C3
:0E052300C3E49FFFE49EFEE49DFDE49CFC22E9
:10053100FAE6FB0808E6F925F0F618E6CA3AF622CB
:10054100D083D082F8E4937012740193700DA3A349
:1005510093F8740193F5828883E47374029368605D
:06056100EFA3A3A380DF5D
:100C5800EFB40A07740D120C63740A309811A8993E
:100C6800B8130CC2983098FDA899C298B811F630FC
:070C780099FDC299F59922D4
:00000001FF
