:1016370073656520796F750063616C63756C6174A0
:101647006F720062696E5F68657820636F6E76659A
:101657007274006465635F62696E20636F6E76659E
:031667007274009A
:02178D00C10D8C
:1011A5007534FFE4F535C200FB7A0079237D111211
:1011B500172D1212D18F22E522B4FF0280F4E52209
:1011C5006474702BB2002000217F0112179A7BFFF7
:1011D5007A1679371216E87FE87E03121679121708
:1011E500AFE4F535C20DFB02127312169980C320C8
:1011F500000280BEE5226423702CF5351217697B49
:10120500FF7A16793F1216E87FE87E031216797F7A
:101215000112179A7B007A0079237D1112172D751B
:1012250034FFC20D808CE5226424701F75350112D0
:1012350017697BFF7A16794A1216E87FE87E031252
:1012450016797F0112179A7B008023E522642570A9
:101255002C7535021217697BFF7A16795A1216E832
:101265007FE87E031216797F0112179A7B007A00B8
:1012750079237D1112172D7534FF0211B7E53570ED
:1012850016F539753A00753B3485223CFB7A0079B1
:101295002312144C0211B7E535B4011875390075E0
:1012A5003A00753B3485223C7B007A007923120E87
:1012B5004A0211B7753900753A00753B3485223CF1
:0C12C5007B007A0079231210110211B78F
:10177D003132332B3435362D3738392A302E3D2F33
:0A178F00080864632324252628744B
:10170D00E4FDFCC3ED9FEC9E5015E4FBFA0BBB0012
:0F171D00010AEB64704A70F50DBD00010C80E409
:01172C00229A
:1012D100E4F53675B0FFE5B0F460717F147E00125D
:1012E100170DE5B0F46065AFB0EF2481605324C001
:1012F100604724E0603B24F0602F24F8602324FC45
:10130100601724FE600B147040E5B0B4FFFBAF081A
:1013110022E5B0B4FFFBAF0922E5B0B4FFFBAF0A91
:1013210022E5B0B4FFFBAF0B22E5B0B4FFFBAF0C7D
:1013310022E5B0B4FFFBAF0D22E5B0B4FFFBAF0E69
:1013410022E5B0B4FFFBAF0F227FFF2275B0F0E5BD
:10135100B064F060677F147E0012170DE5B064F091
:10136100605CAFB0EF2490601B24C0601224E06089
:101371000924F07012753601800D753602800875EA
:101381003603800375360475B00FAFB0EF24F960F2
:101391001824FC601024FE60081470138536368012
:1013A1000E7404800674088002740C2536F536E547
:0E13B100B0B40FFBE53690177C93FF227FFF50
:0113BF00220B
:0F166A00C291C2A58F807F027E00121679D2A591
:10167900E4FDFCC3ED9FEC9E5015E4FBFA0BBB00A7
:0F168900010AEB64704A70F50DBD00010C80E49E
:01169800222F
:08179A00C29012166AC2A522DA
:0817A200D29012166AC2A522C2
:1016E8008B588A59895AAB58AA59A95A1205C16008
:1016F80013055AE55A7002055914F91205C1FF126B
:0517080017A280E2229F
:0517AA007F0C02179AFC
:0517AF007F0802179AFB
:10174D008F55A905E5557007E92480FF12179AE515
:0C175D0055B40107E924C0FF12179A22BE
:101769007F3812179A7F0C12179A7F0612179A7FE1
:041779000102179AB8
:1014CC0057656C636F6D652100627973630073708F
:1014DC00616365206F766572666C6F7765720073F9
:1014EC0070616365206E756C6C006E6F7468696EEC
:1014FC006720746F207072696E7400756E657870F9
:10150C00206572726F7200252E366600696E7661E8
:10151C006C696420696E7075740000000000000036
:10152C0000000000000000000000000000000000AF
:01153C0000AE
:101699001217697BFF7A1479CC1216E8E4FD7F01F1
:1016A90012174D7BFF7A1479D51216E87FE87E036D
:0816B9001216797F0102179A55
:06172D008B558A56895716
:10173300E4FFEFC39D5012AB55AA56A9578F82758C
:091743008300E412063B0F80E96B
:01174C00227A
:101595008B3D8A3E893FAB40AA41A9421205C1B4A1
:1015A5000F211217697BFF7A1479DA1216E87FE8A2
:1015B5007E031216797F0112179AAB3DAA3EA93F09
:1015C5000216E8AB40AA41A94274011206071205AA
:1015D500C1AB3DAA3EA93FF582758300E5431206DE
:0715E5003BAF431217A222E5
:10153D008B3D8A3E893FAB40AA41A9421205C1B4F9
:10154D00FF151217697BFF7A1479EB1216E87FE805
:10155D007E031216798023AB40AA41A9421205C120
:10156D00AB3DAA3EA93FF582758300E412063BAB65
:10157D0040AA41A94274FF1206077F0112179AABC8
:08158D003DAA3EA93F0216E849
:060B22008B3D8A3E893F75
:100B2800E4F546F545F544F543F54AF549F548F544
:100B380047F54EF54DF54CF54BC201C202C203F51F
:100B48004FF554F55375528075513FAB40AA41A9F2
:100B5800421205C1B4FF157BFF7A1479F61216E824
:100B68007FE87E031216797F0102179AE4F550ABED
:100B780040AA41A9421205C1FFE550D39F40030294
:100B88000D5BAB3DAA3EA93F8550827583001205D7
:100B9800DAFF642B600EEF642D6009EF642A6004AD
:100BA800EFB42F078F4FD202020D56EFB42E173035
:100BB8000204D2038002D201E4F554F55375528041
:100BC80075513F020D56200145200242AB3DAA3E19
:100BD800A93F8550827583001205DAFCE41202AB46
:100BE800C004C005C006C007E4FFFE7D207C41AB01
:100BF80046AA45A944A8431200FBD003D002D0015D
:100C0800D00012000AE4FBFA794078C2805E300115
:100C180069200266AF54AE53AD52AC517BCD7ACC4D
:100C280079CC783D1200FB8F548E538D528C51AB8A
:100C380046AA45A944A843C000C001C002C003ABEE
:100C48003DAA3EA93F8550827583001205DA24D05B
:100C5800FDE434FFFCE41202A6AB54AA53A952A83F
:100C6800511200FBD003D002D001D00012000A8F2D
:100C7800468E458D448C43020D56200342AB3DAA57
:100C88003EA93F8550827583001205DAFCE4120202
:100C9800ABC004C005C006C007E4FFFE7D207C4150
:100CA800AB4AAA49A948A8471200FBD003D002D0F2
:100CB80001D00012000AE4FBFA794078C2805B3068
:100CC8000365AF54AE53AD52AC517BCD7ACC79CCE1
:100CD800783D1200FB8F548E538D528C51AB4AAA2B
:100CE80049A948A847C000C001C002C003AB3DAA3B
:100CF8003EA93F8550827583001205DA24D0FDE4B1
:100D080034FFFCE41202A6AB54AA53A952A851120C
:100D180000FBD003D002D001D00012000A8F4A8E07
:100D2800498D488C478027E4F546F545F544F54359
:100D3800F54AF549F548F547FD7F0112174D7BFF48
:100D48007A1579071216E87FE87E0312167905509E
:100D5800020B77E54F24D6603624FD601D24FE6023
:100D6800432404705CAF4AAE49AD48AC47AB46AAD1
:100D780045A944A84312000A803DAB4AAA49A9489C
:100D8800A847AF46AE45AD44AC431200068028AF35
:100D98004AAE49AD48AC47AB46AA45A944A8431258
:100DA80000FB8013AB4AAA49A948A847AF46AE45FD
:100DB800AD44AC431202048F4E8E4D8D4C8C4B804B
:100DC8000C85464E85454D85444C85434BAB3DAA25
:100DD8003EA93F7D1112172D7558FF755915755A83
:100DE80013854E5E854D5D854C5C854B5BAB3DAA9E
:100DF8003EA93F12070FE4FD7F0112174DAB3DAA34
:100E08003EA93F1216E8D201C203C202E4F54FAB75
:100E180040AA41A94274FF120629AB40AA41A9423F
:100E28001205C1F582758300A3AB3DAA3EA93F1206
:100E380005DA600DAB40AA41A94274011206078089
:010E4800D9D0
:010E49002286
:10144C008B368A378938300D107F0112179AAB36DC
:10145C00AA37A9381216E8C20DE53CB43D158539FA
:10146C0040853A41853B42AB36AA37A938120B224C
:10147C00D20D22E53CB46412853940853A41853B56
:10148C0042AB36AA37A93802153DE53CB4631B7F45
:10149C000112179AAB36AA37A9387D1112172DAB4A
:1014AC0039AA3AA93B74FF020629853940853A418D
:1014BC00853B42853C43AB36AA37A9381215952299
:1015EC008B528A538954AB55AA56A9571205C1B4CC
:1015FC00FF157F0112179A7BFF7A1479EB1216E80C
:10160C007FE87E03021679AB55AA56A9571205C17D
:10161C00AB52AA53A954F582758300E412063BAB76
:0B162C0055AA56A95774FF12060722AA
:060E4A008B368A3789385F
:100E5000E4F53DF53E783F7C00FD7BFF7A15792671
:100E6000FE7F0612059BE53CB46415853955853A2D
:100E700056853B57AB36AA37A9381215EC020F013D
:100E8000E53CB4631B7F0112179AAB36AA37A93829
:100E90007D1112172DAB39AA3AA93B74FF0206291E
:100EA000E53C6430601AE53C643160147F01121740
:100EB0009A7BFF7A1579181216E87FF47E01801E5E
:100EC000AB39AA3AA93B1205C1B40F177F0112171B
:100ED0009A7BFF7A1479DA1216E87FE87E031216FD
:100EE00079801EAB39AA3AA93B7401120607120594
:100EF000C1AB36AA37A938F582758300E53C1206E6
:100F00003BAB39AA3AA93B1205C1B4FF057F0102E8
:100F1000179AE4F545AB39AA3AA93B1205C1FFADD2
:100F200045ED3395E0FCD3ED9F7480F86C9850321A
:100F3000AB36AA37A938AF45EF3395E08F82F583FA
:100F40001205DAFD7C00E53E25E0FFE53D33FEEFCE
:100F50002DFFEC3ECF24D0F53EEF34FFF53D0545A7
:100F600080B3E4F545C37403954525E025E0FDFC19
:100F7000EDFF3395E0FEEF2404FFE43EFEECFB338F
:100F800095E0FAC3EB9FEE6480F8EA6480985032F3
:100F9000E53EAE3DA804088005CEC313CE13D8F9B4
:100FA0007E005401FFC3EC9DFBEFA803088005C33E
:100FB00033CE33CED8F9FF743F2545F8EF26F60C33
:100FC00080AE743F2545F8E6FFC39400400CEFD394
:100FD00094095006743026F6800AEFC3940A400440
:100FE000E62437F67543480545E545640460030289
:100FF0000F657F0112179AAB36AA37A9381216E887
:10100000E4FD7F0112174D7B007A00793F1216E84C
:0110100022BD
:061011008B368A37893896
:10101700E4F53DF53E783F7C00FD7BFF7A15792CA2
:10102700FE7F1112059BC201E4F550F551E53CB472
:101037006415853955853A56853B57AB36AA37A986
:10104700381215EC0210D4E53CB4631B7F0112176C
:101057009AAB36AA37A9387D1112172DAB39AA3AA0
:10106700A93B74FF020629E53CC394304007E53CE1
:10107700D3943940147F0112179A7BFF7A15791898
:101087001216E87FF47E01801EAB39AA3AA93B12FB
:1010970005C1B40F177F0112179A7BFF7A1479DA0B
:1010A7001216E87FE87E031216798021AB39AA3A37
:1010B700A93B74011206071205C1FF3395E0AB3651
:1010C700AA37A9388F82F583E53C12063BAB39AACC
:1010D7003AA93B1205C1B4FF057F0102179AE4F54F
:1010E70050AB39AA3AA93B1205C1D36480F8E55041
:1010F7006480985034AB36AA37A938AF50EF339590
:10110700E08F82F5831205DAFB7A00AE3DAF3E7CB5
:10111700007D0A12065DEF2BFFEA3ECF24D0F53E95
:10112700EF34FFF53D055080B8E4F550F551200147
:1011370019C3740F9550FFE53EAE3DA8070880051B
:10114700CEC313CE13D8F9139201300124C3740F01
:101157009550FFE53EAE3DA807088005CEC313CEE8
:1011670013D8F954012430FF743F2551F8A6070519
:10117700510550E550B410B6743F2551F8E4F67F99
:101187000112179AAB36AA37A9381216E8E4FD7F81
:0D1197000112174D7B007A00793F1216E817
:0111A4002228
:10000300020314E86480F8E933E83360110460F014
:10001300ED33EC337009E8FCE9FDEAFEEBFF220463
:1000230060DED3EB9FEA9EE99DE8C2E78CF0C2F75E
:1000330095F0400CE8CCF8E9CDF9EACEFAEBCFFB2A
:100043001202DF85D0F05804700320D5B3E80470A2
:10005300075002B2D502031E92D5EC0460F7E4CC3C
:10006300C0E0C398F8603B94186008400DD0E0FBF3
:100073000202F6E4FBFAC9FC8028E830E406E4C98E
:10008300FBE4CAFCE830E305E4C9CACBFCE8540747
:100093006010F8C3E913F9EA13FAEB13FBEC13FC52
:1000A300D8F130F52FC3E49CFCEF9BFFEE9AFEEDF5
:1000B30099FDD0E0FBEF4E4D4C701222DB0302039F
:1000C3001BEC2CFCEF33FFEE33FEED33FDED30E79D
:1000D300EB0202F6EF2BFFEE3AFEED39FDD0E0FB2B
:1000E30050130BBB000302031EED13FDEE13FEEFD3
:0800F30013FFEC13FC0202F6FE
:1000FB00EC4D6011E8497017ED33EC3304600DE4FF
:10010B00FCFFFEFD22E933E8330470F802031412FE
:10011B0002DF58046009E4CC248150062850090200
:10012B00031E28400302031BC0E0EB4A7044B98056
:10013B0006D0E0FB02030AEF4E701CBD8008EBFFFC
:10014B00EAFEE9FD80EBE98DF0A4FEE5F00201E4A7
:10015B00E9CDF9EAFEEBFFEF89F0A4FCE5F0CE89DF
:10016B00F0A42EFFE435F0CD89F0A42DFEE435F09C
:10017B008067EF4E7005BD80D780C3EF8BF0A4ACCA
:10018B00F0EE8BF0A42CFCE435F0F8EF8AF0A42C05
:10019B00E5F038FCE433CB8DF0A42CFCE5F03BF818
:1001AB00EE8AF0A42CFCE5F038F8E433CF89F0A408
:1001BB002CFCE5F038CF3400CE89F0A42FFFE5F00E
:1001CB003EFEE433C98DF0A42EFEE5F039CD8AF066
:1001DB00A42FFFE5F03EFEE43DFD33D0E0FB5007DE
:1001EB000BBB000F02031EEC2CFCEF33FFEE33FEB8
:0601FB00ED33FD0202F6E7
:1002010002031EEC5D046005E85904700302031447
:100211001202DF580460F6EC4860F2EC7004FDFE57
:10022100FF22C860DB2481C85009C39860025006D0
:1002310002031B9850CAF582E9294B4A7005AB822B
:1002410002030A75F0007C1A7880C3EF9BEE9AEDE9
:1002510099400DC3EF9BFFEE9AFEED99FDE842F048
:10026100DC23ACF0D0E0FFD0E0FED0E0FDAB82209B
:10027100E7101BEB60BAEC2CFCEF33FFEE33FEED25
:1002810033FD0202F6E803F830E705C0F075F0002F
:10029100EF2FFFEE33FEED33FD40B830E7C280AA09
:1002A10075F020800E75F010800575F0087D007ED8
:1002B100007F003392D530D50312066FEC33401026
:1002C100EF33FFEE33FEED33FDEC33FCD5F0ED22E1
:0E02D100E5F0247EA2D513CC92E7CDCEFF221D
:1006B300E56C2458F8E6056C227855300B0278581F
:1006C300E475F00112067D0205C12004EB7F2ED2F2
:1006D300048018EF540F2490D43440D4FF30080B17
:1006E300EF24BFB41A0050032461FFE56D600215C7
:1006F3006D0570E5707002056F300B0D7855E4756C
:10070300F00112067DEF0206290216C17403D20B13
:100713008003E4C20BF56C8B558A568957E4F56D5B
:10072300F56FF570E56D60077F201206EE80F575B5
:100733006EFFC205C204C206C207C209C20AC20CC6
:100743001206BCFF700D300B057F001206FFAF7061
:10075300AE6F22B4255FC2D5C2081206BCFF24D0F7
:10076300B40A00501A75F00A786D30D50508B6FF43
:100773000106C6A426F620D5047002D20780D92428
:10078300CFB41A00EF5004C2E5D2080209ECD20537
:1007930080C6D20480C0D20680BCD2D580BAD2092A
:1007A30080B47F201206EE2006077401B56D004069
:1007B300F11206B3FF1206EE020727D20CD20A800B
:1007C300951206B3FB1206B3FA1206B3F94A4B703D
:1007D3000679E37A0A7BFF20062EE56D602A7E0008
:1007E3008E827583001205DA60060EEE656E70F078
:1007F300C2D5EBC0E0EAC0E0E9C0E0EE120A4CD09B
:10080300E0F9D0E0FAD0E0FB1205C1FF60AAEBC02B
:10081300E0EAC0E0E9C0E01206EED0E02401F9D03E
:10082300E03400FAD0E0FBE56E0460DCD56ED980DD
:1008330087D20680A2120A2F60F7E56E70010412B8
:100843000329A96E600DE56E600914F56E120AD6D0
:10085300EF60F3EA30E702F404C3995077EAF42532
:100863006E0430E701E404F56E800D120A2F60C1B7
:10087300EA056E256E120329EA786BF630E701E488
:10088300256E04D56E0420090114120A4CE4C0E05D
:10089300120AD6786BE6601320E70714F61206D621
:1008A300802204F6D0E014C0E07F001206D6E56E85
:1008B30060071206CD156E800B3009031206CDD0EA
:1008C300E0020727D0E00480C5120A2F60A0E56E7E
:1008D30004120329786BEAF6E56E2009026001042D
:0508E3002404120A4C80
:1008E80074FF04C0E0120AD61206D6E56E2009028B
:1008F80060031206CDD0E0B56EE87F451206E078B9
:100908006BE67F2B30E7047F2DF404C0E01206EE7F
:10091800D0E075F00A84C0F01206D7D0E01206D7EE
:10092800020727791080027908C20AC20C8008D20F
:10093800D5790A8004790AC2D5E56E047002F56E8D
:10094800E4FAFDFEFF1206B3FC7B0820051312062D
:10095800B3FD7B1030040A1206B3FE1206B3FF7B08
:1009680020EC3382D592D55013C3E43004069FFFA0
:10097800E49EFEE42005039DFDE49CFCE4CBF8C264
:1009880005EC700CCFCECDCCE824F8F870F38017C6
:10099800C3EF33FFEE33FEED33FDEC33FCEB33FBFB
:1009A800994002FB0FD8E9EB300505F8D0E0C448C0
:1009B800B205C0E00AEC4D4E4F78207B0070C2EAC9
:1009C800B56E0040BCC0E0120A4ED0F0D0E0200561
:1009D80004C4C0E0C4B205C0F01206D7D0F0D5F008
:1009E800EB02072712068D07C453092B5807954CAD
:1009F800079142092F4F09374409374907AA430984
:100A08003D55086E4608CC450838470B03500799F2
:100A18002D079D2E07C02B07A12307BE200AEC2A0D
:100A2800075948000007B8E56EB4FF03756E061253
:100A380006B3FC1206B3FD1206B3FE1206B3FF7826
:100A480064020358790AA2D5200714300909B9109D
:100A5800020404B9080104A2D5200A0250010420A6
:100A680006689206B56D005034C0E07F2030071943
:100A78007F30A206720A7209500F120AA5C206C276
:100A88000AC209C20C7F30800F300903E9C0E012A6
:100A980006EE300903D0E0F9D0E0B56DCC30091787
:100AA8007F30B9100C1206EE7F583008077F788027
:100AB80003B908031206EE3006057F2D0206EE7F05
:100AC80020200CF87F2B200AF322920680CF7F008B
:100AD800B4070050052464F8E6FF22286E756C6C94
:100AE8002900D2051206B33005F8C205786D30D555
:100AF8000108F60207592D504349581206B324033A
:100B0800B405004001E4900AFE931206DF743A121D
:0A0B180006DFD207756D0402092BF9
:1002DF00E9D2E7C933E833F892D5EDD2E7CD33EC65
:0702EF0033FC5002B2D522DE
:1002F600EC30E7100FBF000C0EBE00080DBD000469
:100306000BEB6014A2D5EB13FCED92E7FD2274FF14
:10031600FCFDFEFF22E480F8A2D574FF13FC7D806D
:03032600E480EF81
:10032900F920E72824F950037907E4F42402FB189B
:10033900DBFDE624FB5014E9600DE4F618E604F64B
:0F034900B40A08E4F6D9F57401F60A22C2D522E7
:10035800ED33EC3392D5FA602AB4FF33EDC2E77B74
:10036800FF60067A03797DE4227A03798620D50432
:100378007A037981224E614E002B494E46002D4961
:100388004E4600E47A08F608DAFC7B00740722E897
:10039800C0E0ECC0E0EDC0E0EEC0E0EFC0E0EA7520
:1003A800F010A4CAABF075F04DA42BFBE435F0FCBB
:1003B800EA2410FAEB34C5FBEC34D9FCEDC2E7FFB4
:1003C80075F056A4F42411C5F0F434C58FF0A42AAE
:1003D800E5F03BE43CF620E71412048BD0E0FFD0B4
:1003E800E0FED0E0FDD0E0FC1202048014F4041218
:1003F800048BD0E0FFD0E0FED0E0FDD0E0FC12009E
:10040800FBD0E0F8E6FAEDD2E7CD33EC332482FBFB
:10041800E4C3CF33CFCE33CECD33CD33DBF37B073D
:1004280075F00A846004F6081B0AE5F0F6088FF0F8
:10043800740AA4FFACF08EF0740AA42CFEACF05041
:10044800010C8DF0740AA42CFDE435F0F608DBDE0F
:0304580074072204
:10045B003F8000004120000042C80000447A0000A9
:10046B00461C400047C35000497424004B1896802B
:10047B004CBEBC205A0E1BCA6753C21C749DC5AE22
:10048B00FB60065407601C23231204B9EB5438603D
:10049B00091204A51204B41200FBECF8EDF9EEFA04
:1004AB00EFCB22EB1204B480F1543803241C9004DC
:1004BB005BFE93FC0EEE93FD0EEE930ECE93FF229E
:030000000213C028
:0C13C000787FE4F6D8FD758170021407F8
:1004CB00E709F608DFFA8046E709F208DFFA803E13
:1004DB0088828C83E709F0A3DFFA8032E309F60800
:1004EB00DFFA8078E309F208DFFA807088828C8368
:1004FB00E309F0A3DFFA806489828A83E0A3F6081C
:10050B00DFFA805889828A83E0A3F208DFFA804CF5
:10051B0080D280FA80C680D4806980F280338010CC
:10052B0080A680EA809A80A880DA80E280CA803335
:10053B0089828A83ECFAE493A3C8C582C8CCC583AD
:10054B00CCF0A3C8C582C8CCC583CCDFE9DEE7807D
:10055B000D89828A83E493A3F608DFF9ECFAA9F0FC
:10056B00EDFB2289828A83ECFAE0A3C8C582C8CC52
:10057B00C583CCF0A3C8C582C8CCC583CCDFEADE6B
:10058B00E880DB89828A83E493A3F208DFF980CCCD
:10059B0088F0EF60010E4E60C388F0ED2402B404C6
:1005AB000050B9F582EB2402B4040050AF2323456D
:0605BB00822390051B7372
:1005C100BB010689828A83E0225002E722BBFE0238
:0905D100E32289828A83E493226B
:1005DA00BB010CE58229F582E5833AF583E02250D6
:1005EA0006E92582F8E622BBFE06E92582F8E22220
:0D05FA00E58229F582E5833AF583E493223A
:10060700BB010989828A83F8E028F022500327F783
:1006170022BBFE05F8E328F3228A838982F8E49354
:02062700282287
:10062900BB010689828A83F0225002F722BBFE01B0
:02063900F322AA
:10063B00F8BB010DE58229F582E5833AF583E8F0F5
:10064B00225006E92582C8F622BBFE05E92582C8A1
:02065B00F22289
:10065D00EF8DF0A4A8F0CF8CF0A428CE8DF0A42EB1
:02066D00FE226B
:0E066F00C3E49FFFE49EFEE49DFDE49CFC229C
:10067D00FAE6FB0808E6F925F0F618E6CA3AF6227E
:10068D00D083D082F8E4937012740193700DA3A3FC
:10069D0093F8740193F5828883E473740293686010
:0606AD00EFA3A3A380DF10
:1016C100EFB40A07740D1216CC740A309811A89958
:1016D100B8130CC2983098FDA899C298B811F63089
:0716E10099FDC299F5992261
:1013CC000211A5E493A3F8E493A34003F68001F281
:1013DC0008DFF48029E493A3F85407240CC8C33322
:1013EC00C4540F4420C8834004F456800146F6DFF1
:1013FC00E4800B010204081020408090178DE47EDD
:10140C00019360BCA3FF543F30E509541FFEE493E5
:10141C00A360010ECF54C025E060A840B8E493A3AC
:10142C00FAE493A3F8E493A3C8C582C8CAC583CAD7
:10143C00F0A3C8C582C8CAC583CADFE9DEE780BE8F
:01179900004F
:00000001FF
