:1014AD0073656520796F750063616C63756C61742C
:1014BD006F720062696E5F68657820636F6E766526
:0314CD0072740036
:02155000C10ECA
:1010C7007534FFC200C2017B007A0079237D1112BB
:1010D70014F0120FD88F22E522B4FF0280F4E52224
:1010E70064747028B20120011E7F0112155D7BFF19
:1010F7007A1479AD1214887FE87E03121419121539
:1011070072C200C20E805C12143980C620010280B0
:10111700C1E5226423702CC20012152C7BFF7A14C0
:1011270079B51214887FE87E031214197F0112150E
:101137005D7B007A0079237D111214F07534FFC2AC
:101147000E808FE5226424702BD20012152C7BFFB2
:101157007A1479C01214887FE87E031214197F016C
:1011670012155D7B007A0079237D111214F0753416
:10117700FF0210D9200018753800753900753A3408
:1011870085223B7B007A00792312123A0210D97527
:101197003800753900753A3485223B7B007A00792F
:0711A70023120E110210D902
:101540003132332B3435362D3738392A302E3D2F72
:0A155200080864632324252628748A
:1014D000E4FDFCC3ED9FEC9E5015E4FBFA0BBB0052
:0F14E000010AEB64704A70F50DBD00010C80E449
:0114EF0022DA
:100FD800E4F53575B0FFE5B0F460717F147E00125A
:100FE80014D0E5B0F46065AFB0EF2481605324C03D
:100FF800604724E0603B24F0602F24F8602324FC41
:10100800601724FE600B147040E5B0B4FFFBAF0816
:1010180022E5B0B4FFFBAF0922E5B0B4FFFBAF0A8D
:1010280022E5B0B4FFFBAF0B22E5B0B4FFFBAF0C79
:1010380022E5B0B4FFFBAF0D22E5B0B4FFFBAF0E65
:1010480022E5B0B4FFFBAF0F227FFF2275B0F0E5B9
:10105800B064F060677F147E001214D0E5B064F0CD
:10106800605CAFB0EF2490601B24C0601224E06085
:101078000924F07012753501800D753502800875E8
:101088003503800375350475B00FAFB0EF24F960F0
:101098001824FC601024FE60081470138535358010
:1010A8000E7404800674088002740C2535F535E545
:0E10B800B0B40FFBE53590153F93FF227FFF8C
:0110C6002207
:0F140A00C291C2A58F807F027E00121419D2A555
:10141900E4FDFCC3ED9FEC9E5015E4FBFA0BBB0009
:0F142900010AEB64704A70F50DBD00010C80E400
:011438002291
:08155D00C29012140AC2A5227B
:08156500D29012140AC2A52263
:101488008B548A558956AB54AA55A9561205C16082
:10149800130556E5567002055514F91205C1FF12D9
:0514A800156580E22241
:05156D007F0C02155D7A
:051572007F0802155D79
:101510008F54A905E5547007E92480FF12155DE595
:0C15200054B40107E924C0FF12155D223D
:10152C007F3812155D7F0C12155D7F0612155D7FDD
:04153C000102155D36
:1012B20057656C636F6D65210062797363007370AB
:1012C200616365206F766572666C6F776572007315
:1012D20070616365206E756C6C006E6F7468696E08
:1012E2006720746F207072696E7400756E65787015
:1012F200206572726F7200252E366600696E766105
:101302006C696420696E7075740000000000000052
:1014390012152C7BFF7A1279B2121488E4FD7F0110
:101449001215107BFF7A1279BB1214887FE87E038C
:081459001214197F0102155D58
:0614F0008B548A55895659
:1014F600E4FFEFC39D5012AB54AA55A9568F8275CF
:091506008300E412063B0F80E9AA
:01150F0022B9
:10136A008B3C8A3D893EAB3FAA40A9411205C1B4D4
:10137A000F2112152C7BFF7A1279C01214887FE88C
:10138A007E031214197F0112155DAB3CAA3DA93EDA
:10139A00021488AB3FAA40A941740112060712053C
:1013AA00C1AB3CAA3DA93EF582758300E54212060F
:0713BA003BAF421215652252
:101312008B3C8A3D893EAB3FAA40A9411205C1B42C
:10132200FF1512152C7BFF7A1279D11214887FE8EF
:101332007E031214198023AB3FAA40A9411205C1B2
:10134200AB3CAA3DA93EF582758300E412063BAB95
:101352003FAA40A94174FF1206077F0112155DAB37
:081362003CAA3DA93E021488DB
:060B10008B3C8A3D893E8A
:100B1600E4F545F544F543F542F549F548F547F55D
:100B260046F54DF54CF54BF54AC202C203C204F533
:100B36004EF553F55275518075503FAB3FAA40A90B
:100B4600411205C1B4FF157BFF7A1279DC121488B5
:100B56007FE87E031214197F0102155DE4F54FABA1
:100B66003FAA40A9411205C1FFE54FD39F400302AA
:100B76000D49AB3CAA3DA93E854F827583001205FF
:100B8600DAFF642B600EEF642D6009EF642A6004BF
:100B9600EFB42F078F4ED203020D44EFB42E173059
:100BA6000304D2048002D202E4F553F55275518053
:100BB60075503F020D44200245200342AB3CAA3D3E
:100BC600A93E854F827583001205DAFCE41202AB5A
:100BD600C004C005C006C007E4FFFE7D207C41AB13
:100BE60045AA44A943A8421200FBD003D002D00173
:100BF600D00012000AE4FBFA794078C2805E300227
:100C060069200366AF53AE52AD51AC507BCD7ACC62
:100C160079CC783D1200FB8F538E528D518C50ABA0
:100C260045AA44A943A842C000C001C002C003AB04
:100C36003CAA3DA93E854F827583001205DA24D071
:100C4600FDE434FFFCE41202A6AB53AA52A951A854
:100C5600501200FBD003D002D001D00012000A8F40
:100C6600458E448D438C42020D44200442AB3CAA7F
:100C76003DA93E854F827583001205DAFCE4120217
:100C8600ABC004C005C006C007E4FFFE7D207C4162
:100C9600AB49AA48A947A8461200FBD003D002D008
:100CA60001D00012000AE4FBFA794078C2805B307A
:100CB6000465AF53AE52AD51AC507BCD7ACC79CCF6
:100CC600783D1200FB8F538E528D518C50AB49AA42
:100CD60048A947A846C000C001C002C003AB3CAA51
:100CE6003DA93E854F827583001205DA24D0FDE4C6
:100CF60034FFFCE41202A6AB53AA52A951A8501223
:100D060000FBD003D002D001D00012000A8F498E1A
:100D1600488D478C468027E4F545F544F543F54272
:100D2600F549F548F547F546FD7F011215107BFF9D
:100D36007A1279ED1214887FE87E03121419054F92
:100D4600020B65E54E24D6603624FD601D24FE6048
:100D5600432404705CAF49AE48AD47AC46AB45AAE8
:100D660044A943A84212000A803DAB49AA48A947B4
:100D7600A846AF45AE44AD43AC421200068028AF4C
:100D860049AE48AD47AC46AB45AA44A943A8421272
:100D960000FB8013AB49AA48A947A846AF45AE4415
:100DA600AD43AC421202048F4D8E4C8D4B8C4A8063
:100DB6000C85454D85444C85434B85424AAB3CAA40
:100DC6003DA93E7D111214F07557FF7558127559DD
:100DD600F9854D5D854C5C854B5B854A5AAB3CAAD3
:100DE6003DA93E1206FDE4FD7F01121510AB3CAA9B
:100DF6003DA93E121488AB3FAA40A94174FF1206D2
:0A0E060029C202C204C203E4F54E43
:010E100022BF
:10123A008B358A368937300E087F0112155DC20E4A
:10124A0022E53BB43D1585383F853940853A41ABA7
:10125A0035AA36A937120B10D20E22E53BB4641216
:10126A0085383F853940853A41AB35AA36A93702D8
:10127A001312E53BB4631B7F0112155DAB35AA3629
:10128A00A9377D111214F0AB38AA39A93A74FF02B2
:10129A00062985383F853940853A41853B42AB3539
:0812AA00AA36A93712136A22CB
:1013C1008B458A468947AB48AA49A94A1205C1B447
:1013D100FF1312152C7BFF7A1279D11214887FE842
:1013E1007E03021419AB48AA49A94A1205C1AB45AB
:1013F100AA46A947F582758300E412063BAB48AAC9
:0914010049A94A74FF12060722F2
:060E11008B358A3689379B
:100E1700E4F53CF53D783E7C00FD7BFF7A13790CC9
:100E2700FE7F0612059BE53BB46415853848853976
:100E370049853A4AAB35AA36A9371213C1020EC8FB
:100E4700E53BB4631B7F0112155DAB35AA36A937A5
:100E57007D111214F0AB38AA39A93A74FF0206299A
:100E6700E53B6430601AE53B643160147F0112157D
:100E77005D7BFF7A1279FE1214887FF47E01801E53
:100E8700AB38AA39A93A1205C1B40F177F01121559
:100E97005D7BFF7A1279C01214887FE87E031214F3
:100EA70019801EAB38AA39A93A7401120607120530
:100EB700C1AB35AA36A937F582758300E53B120623
:100EC7003BAB38AA39A93A1205C1B4FF057F010225
:100ED700155DE4F544AB38AA39A93A1205C1FFAD4F
:100EE70044ED3395E0FCD3ED9F7480F86C98503255
:100EF700AB35AA36A937AF44EF3395E08F82F58338
:100F07001205DAFD7C00E53D25E0FFE53C33FEEF09
:100F17002DFFEC3ECF24D0F53DEF34FFF53C0544E3
:100F270080B3E4F544C37403954425E025E0FDFC54
:100F3700EDFF3395E0FEEF2404FFE43EFEECFB33C8
:100F470095E0FAC3EB9FEE6480F8EA64809850322C
:100F5700E53DAE3CA804088005CEC313CE13D8F9EF
:100F67007E005401FFC3EC9DFBEFA803088005C377
:100F770033CE33CED8F9FF743E2544F8EF26F60C6E
:100F870080AE743E2544F8E6FFC39400400CEFD3CF
:100F970094095006743026F6800AEFC3940A400479
:100FA700E62437F67542480544E5446404600302C5
:100FB7000F2C7F0112155DAB35AA36A9371214889D
:100FC700E4FD7F011215107B007A00793E12148828
:010FD70022F7
:10000300020314E86480F8E933E83360110460F014
:10001300ED33EC337009E8FCE9FDEAFEEBFF220463
:1000230060DED3EB9FEA9EE99DE8C2E78CF0C2F75E
:1000330095F0400CE8CCF8E9CDF9EACEFAEBCFFB2A
:100043001202DF85D0F05804700320D5B3E80470A2
:10005300075002B2D502031E92D5EC0460F7E4CC3C
:10006300C0E0C398F8603B94186008400DD0E0FBF3
:100073000202F6E4FBFAC9FC8028E830E406E4C98E
:10008300FBE4CAFCE830E305E4C9CACBFCE8540747
:100093006010F8C3E913F9EA13FAEB13FBEC13FC52
:1000A300D8F130F52FC3E49CFCEF9BFFEE9AFEEDF5
:1000B30099FDD0E0FBEF4E4D4C701222DB0302039F
:1000C3001BEC2CFCEF33FFEE33FEED33FDED30E79D
:1000D300EB0202F6EF2BFFEE3AFEED39FDD0E0FB2B
:1000E30050130BBB000302031EED13FDEE13FEEFD3
:0800F30013FFEC13FC0202F6FE
:1000FB00EC4D6011E8497017ED33EC3304600DE4FF
:10010B00FCFFFEFD22E933E8330470F802031412FE
:10011B0002DF58046009E4CC248150062850090200
:10012B00031E28400302031BC0E0EB4A7044B98056
:10013B0006D0E0FB02030AEF4E701CBD8008EBFFFC
:10014B00EAFEE9FD80EBE98DF0A4FEE5F00201E4A7
:10015B00E9CDF9EAFEEBFFEF89F0A4FCE5F0CE89DF
:10016B00F0A42EFFE435F0CD89F0A42DFEE435F09C
:10017B008067EF4E7005BD80D780C3EF8BF0A4ACCA
:10018B00F0EE8BF0A42CFCE435F0F8EF8AF0A42C05
:10019B00E5F038FCE433CB8DF0A42CFCE5F03BF818
:1001AB00EE8AF0A42CFCE5F038F8E433CF89F0A408
:1001BB002CFCE5F038CF3400CE89F0A42FFFE5F00E
:1001CB003EFEE433C98DF0A42EFEE5F039CD8AF066
:1001DB00A42FFFE5F03EFEE43DFD33D0E0FB5007DE
:1001EB000BBB000F02031EEC2CFCEF33FFEE33FEB8
:0601FB00ED33FD0202F6E7
:1002010002031EEC5D046005E85904700302031447
:100211001202DF580460F6EC4860F2EC7004FDFE57
:10022100FF22C860DB2481C85009C39860025006D0
:1002310002031B9850CAF582E9294B4A7005AB822B
:1002410002030A75F0007C1A7880C3EF9BEE9AEDE9
:1002510099400DC3EF9BFFEE9AFEED99FDE842F048
:10026100DC23ACF0D0E0FFD0E0FED0E0FDAB82209B
:10027100E7101BEB60BAEC2CFCEF33FFEE33FEED25
:1002810033FD0202F6E803F830E705C0F075F0002F
:10029100EF2FFFEE33FEED33FD40B830E7C280AA09
:1002A10075F020800E75F010800575F0087D007ED8
:1002B100007F003392D530D50312065DEC33401038
:1002C100EF33FFEE33FEED33FDEC33FCD5F0ED22E1
:0E02D100E5F0247EA2D513CC92E7CDCEFF221D
:1006A100E56B2457F8E6056B227854300C02785735
:1006B100E475F00112066B0205C12005EB7F2ED215
:1006C100058018EF540F2490D43440D4FF30090B27
:1006D100EF24BFB41A0050032461FFE56C600215DA
:1006E1006C056FE56F7002056E300C0D7854E47582
:1006F100F00112066BEF0206290214617403D20C99
:100701008003E4C20CF56B8B548A558956E4F56C71
:10071100F56EF56FE56C60077F201206DC80F575DC
:100721006DFFC206C205C207C208C20AC20BC20DD2
:100731001206AAFF700D300C057F001206EDAF6F97
:10074100AE6E22B4255FC2D5C2091206AAFF24D01B
:10075100B40A00501A75F00A786C30D50508B6FF56
:100761000106C6A426F620D5047002D20880D92439
:10077100CFB41A00EF5004C2E5D2090209DAD20659
:1007810080C6D20580C0D20780BCD2D580BAD20A39
:1007910080B47F201206DC2007077401B56C00408D
:1007A100F11206A1FF1206DC020715D20DD20B8051
:1007B100951206A1FB1206A1FA1206A1F94A4B7085
:1007C1000679D17A0A7BFF20072EE56C602A7E002C
:1007D1008E827583001205DA60060EEE656D70F08B
:1007E100C2D5EBC0E0EAC0E0E9C0E0EE120A3AD0BF
:1007F100E0F9D0E0FAD0E0FB1205C1FF60AAEBC03E
:10080100E0EAC0E0E9C0E01206DCD0E02401F9D062
:10081100E03400FAD0E0FBE56D0460DCD56DD980F1
:1008210087D20780A2120A1D60F7E56D70010412DC
:100831000329A96D600DE56D600914F56D120AC4F7
:10084100EF60F3EA30E702F404C3995077EAF42544
:100851006D0430E701E404F56D800D120A1D60C1DD
:10086100EA056D256D120329EA786AF630E701E49D
:10087100256D04D56D04200A0114120A3AE4C0E082
:10088100120AC4786AE6601320E70714F61206C458
:10089100802204F6D0E014C0E07F001206C4E56DAA
:1008A10060071206BB156D800B300A031206BBD020
:1008B100E0020715D0E00480C5120A1D60A0E56DB5
:1008C10004120329786AEAF6E56D200A0260010440
:0508D1002404120A3AA4
:1008D60074FF04C0E0120AC41206C4E56D200A02C1
:1008E60060031206BBD0E0B56DE87F451206CE78F0
:1008F6006AE67F2B30E7047F2DF404C0E01206DCA5
:10090600D0E075F00A84C0F01206C5D0E01206C524
:10091600020715791080027908C20BC20D8008D231
:10092600D5790A8004790AC2D5E56D047002F56DA1
:10093600E4FAFDFEFF1206A1FC7B08200613120650
:10094600A1FD7B1030050A1206A1FE1206A1FF7B4F
:1009560020EC3382D592D55013C3E43005069FFFB1
:10096600E49EFEE42006039DFDE49CFCE4CBF8C275
:1009760006EC700CCFCECDCCE824F8F870F38017D7
:10098600C3EF33FFEE33FEED33FDEC33FCEB33FB0D
:10099600994002FB0FD8E9EB300605F8D0E0C448D1
:1009A600B206C0E00AEC4D4E4F78207B0070C2EADA
:1009B600B56D0040BCC0E0120A3CD0F0D0E0200685
:1009C60004C4C0E0C4B206C0F01206C5D0F0D5F02B
:1009D600EB02071512067B07B25309195807834C19
:1009E600077F42091D4F09254409254907984309F0
:1009F6002B55085C4608BA450826470AF150078772
:100A06002D078B2E07AE2B078F2307AC200ADA2A79
:100A1600074748000007A6E56DB4FF03756D06128B
:100A260006A1FC1206A1FD1206A1FE1206A1FF7880
:100A360063020358790AA2D5200814300A09B910AE
:100A4600020404B9080104A2D5200B0250010420B7
:100A560007689207B56C005034C0E07F2030081953
:100A66007F30A207720B720A500F120A93C207C296
:100A76000BC20AC20D7F30800F300A03E9C0E012B4
:100A860006DC300A03D0E0F9D0E0B56CCC300A17AA
:100A96007F30B9100C1206DC7F583009077F78804A
:100AA60003B908031206DC3007057F2D0206DC7F3A
:100AB60020200DF87F2B200BF322920780CF7F009A
:100AC600B4070050052463F8E6FF22286E756C6CA7
:100AD6002900D2061206A13006F8C206786C30D577
:100AE6000108F60207472D504349581206A1240370
:100AF600B405004001E4900AEC931206CD743A1254
:0A0B060006CDD208756C040209192F
:1002DF00E9D2E7C933E833F892D5EDD2E7CD33EC65
:0702EF0033FC5002B2D522DE
:1002F600EC30E7100FBF000C0EBE00080DBD000469
:100306000BEB6014A2D5EB13FCED92E7FD2274FF14
:10031600FCFDFEFF22E480F8A2D574FF13FC7D806D
:03032600E480EF81
:10032900F920E72824F950037907E4F42402FB189B
:10033900DBFDE624FB5014E9600DE4F618E604F64B
:0F034900B40A08E4F6D9F57401F60A22C2D522E7
:10035800ED33EC3392D5FA602AB4FF33EDC2E77B74
:10036800FF60067A03797DE4227A03798620D50432
:100378007A037981224E614E002B494E46002D4961
:100388004E4600E47A08F608DAFC7B00740722E897
:10039800C0E0ECC0E0EDC0E0EEC0E0EFC0E0EA7520
:1003A800F010A4CAABF075F04DA42BFBE435F0FCBB
:1003B800EA2410FAEB34C5FBEC34D9FCEDC2E7FFB4
:1003C80075F056A4F42411C5F0F434C58FF0A42AAE
:1003D800E5F03BE43CF620E71412048BD0E0FFD0B4
:1003E800E0FED0E0FDD0E0FC1202048014F4041218
:1003F800048BD0E0FFD0E0FED0E0FDD0E0FC12009E
:10040800FBD0E0F8E6FAEDD2E7CD33EC332482FBFB
:10041800E4C3CF33CFCE33CECD33CD33DBF37B073D
:1004280075F00A846004F6081B0AE5F0F6088FF0F8
:10043800740AA4FFACF08EF0740AA42CFEACF05041
:10044800010C8DF0740AA42CFDE435F0F608DBDE0F
:0304580074072204
:10045B003F8000004120000042C80000447A0000A9
:10046B00461C400047C35000497424004B1896802B
:10047B004CBEBC205A0E1BCA6753C21C749DC5AE22
:10048B00FB60065407601C23231204B9EB5438603D
:10049B00091204A51204B41200FBECF8EDF9EEFA04
:1004AB00EFCB22EB1204B480F1543803241C9004DC
:1004BB005BFE93FC0EEE93FD0EEE930ECE93FF229E
:030000000211AE3C
:0C11AE00787FE4F6D8FD75816F0211F522
:1004CB00E709F608DFFA8046E709F208DFFA803E13
:1004DB0088828C83E709F0A3DFFA8032E309F60800
:1004EB00DFFA8078E309F208DFFA807088828C8368
:1004FB00E309F0A3DFFA806489828A83E0A3F6081C
:10050B00DFFA805889828A83E0A3F208DFFA804CF5
:10051B0080D280FA80C680D4806980F280338010CC
:10052B0080A680EA809A80A880DA80E280CA803335
:10053B0089828A83ECFAE493A3C8C582C8CCC583AD
:10054B00CCF0A3C8C582C8CCC583CCDFE9DEE7807D
:10055B000D89828A83E493A3F608DFF9ECFAA9F0FC
:10056B00EDFB2289828A83ECFAE0A3C8C582C8CC52
:10057B00C583CCF0A3C8C582C8CCC583CCDFEADE6B
:10058B00E880DB89828A83E493A3F208DFF980CCCD
:10059B0088F0EF60010E4E60C388F0ED2402B404C6
:1005AB000050B9F582EB2402B4040050AF2323456D
:0605BB00822390051B7372
:1005C100BB010689828A83E0225002E722BBFE0238
:0905D100E32289828A83E493226B
:1005DA00BB010CE58229F582E5833AF583E02250D6
:1005EA0006E92582F8E622BBFE06E92582F8E22220
:0D05FA00E58229F582E5833AF583E493223A
:10060700BB010989828A83F8E028F022500327F783
:1006170022BBFE05F8E328F3228A838982F8E49354
:02062700282287
:10062900BB010689828A83F0225002F722BBFE01B0
:02063900F322AA
:10063B00F8BB010DE58229F582E5833AF583E8F0F5
:10064B00225006E92582C8F622BBFE05E92582C8A1
:02065B00F22289
:0E065D00C3E49FFFE49EFEE49DFDE49CFC22AE
:10066B00FAE6FB0808E6F925F0F618E6CA3AF62290
:10067B00D083D082F8E4937012740193700DA3A30E
:10068B0093F8740193F5828883E473740293686022
:06069B00EFA3A3A380DF22
:10146100EFB40A07740D12146C740A309811A8991C
:10147100B8130CC2983098FDA899C298B811F630EB
:0714810099FDC299F59922C3
:1011BA000210C7E493A3F8E493A34003F68001F274
:1011CA0008DFF48029E493A3F85407240CC8C33336
:1011DA00C4540F4420C8834004F456800146F6DF05
:1011EA00E4800B0102040810204080901550E47E30
:1011FA00019360BCA3FF543F30E509541FFEE493FA
:10120A00A360010ECF54C025E060A840B8E493A3C0
:10121A00FAE493A3F8E493A3C8C582C8CAC583CAEB
:10122A00F0A3C8C582C8CAC583CADFE9DEE780BEA3
:01155C00008E
:00000001FF
